{
  "address": "0xDc64a140Aa3E981100a9becA4E685f962f0cF6C9",
  "abi": [
    {
      "inputs": [
        {
          "internalType": "address",
          "name": "vrfCoordinatorV2",
          "type": "address"
        },
        {
          "internalType": "uint64",
          "name": "subscriptionId",
          "type": "uint64"
        },
        {
          "internalType": "bytes32",
          "name": "gasLane",
          "type": "bytes32"
        },
        {
          "internalType": "uint32",
          "name": "callbackGasLimit",
          "type": "uint32"
        },
        {
          "internalType": "string[3]",
          "name": "dogTokenUris",
          "type": "string[3]"
        },
        {
          "internalType": "uint256",
          "name": "mintFee",
          "type": "uint256"
        }
      ],
      "stateMutability": "nonpayable",
      "type": "constructor"
    },
    {
      "inputs": [
        {
          "internalType": "address",
          "name": "have",
          "type": "address"
        },
        {
          "internalType": "address",
          "name": "want",
          "type": "address"
        }
      ],
      "name": "OnlyCoordinatorCanFulfill",
      "type": "error"
    },
    {
      "inputs": [],
      "name": "RandomIPFSNFT__NeedMoreETHSent",
      "type": "error"
    },
    {
      "inputs": [],
      "name": "RandomIPFSNFT__TransferFailed",
      "type": "error"
    },
    {
      "anonymous": false,
      "inputs": [
        {
          "indexed": true,
          "internalType": "address",
          "name": "owner",
          "type": "address"
        },
        {
          "indexed": true,
          "internalType": "address",
          "name": "approved",
          "type": "address"
        },
        {
          "indexed": true,
          "internalType": "uint256",
          "name": "tokenId",
          "type": "uint256"
        }
      ],
      "name": "Approval",
      "type": "event"
    },
    {
      "anonymous": false,
      "inputs": [
        {
          "indexed": true,
          "internalType": "address",
          "name": "owner",
          "type": "address"
        },
        {
          "indexed": true,
          "internalType": "address",
          "name": "operator",
          "type": "address"
        },
        {
          "indexed": false,
          "internalType": "bool",
          "name": "approved",
          "type": "bool"
        }
      ],
      "name": "ApprovalForAll",
      "type": "event"
    },
    {
      "anonymous": false,
      "inputs": [
        {
          "indexed": false,
          "internalType": "enum RandomIPFSNFT.Breed",
          "name": "dogBreed",
          "type": "uint8"
        },
        {
          "indexed": false,
          "internalType": "address",
          "name": "minter",
          "type": "address"
        }
      ],
      "name": "NftMinted",
      "type": "event"
    },
    {
      "anonymous": false,
      "inputs": [
        {
          "indexed": true,
          "internalType": "uint256",
          "name": "requestId",
          "type": "uint256"
        },
        {
          "indexed": false,
          "internalType": "address",
          "name": "requester",
          "type": "address"
        }
      ],
      "name": "NftRequested",
      "type": "event"
    },
    {
      "anonymous": false,
      "inputs": [
        {
          "indexed": true,
          "internalType": "address",
          "name": "previousOwner",
          "type": "address"
        },
        {
          "indexed": true,
          "internalType": "address",
          "name": "newOwner",
          "type": "address"
        }
      ],
      "name": "OwnershipTransferred",
      "type": "event"
    },
    {
      "anonymous": false,
      "inputs": [
        {
          "indexed": true,
          "internalType": "address",
          "name": "from",
          "type": "address"
        },
        {
          "indexed": true,
          "internalType": "address",
          "name": "to",
          "type": "address"
        },
        {
          "indexed": true,
          "internalType": "uint256",
          "name": "tokenId",
          "type": "uint256"
        }
      ],
      "name": "Transfer",
      "type": "event"
    },
    {
      "inputs": [
        {
          "internalType": "address",
          "name": "to",
          "type": "address"
        },
        {
          "internalType": "uint256",
          "name": "tokenId",
          "type": "uint256"
        }
      ],
      "name": "approve",
      "outputs": [],
      "stateMutability": "nonpayable",
      "type": "function"
    },
    {
      "inputs": [
        {
          "internalType": "address",
          "name": "owner",
          "type": "address"
        }
      ],
      "name": "balanceOf",
      "outputs": [
        {
          "internalType": "uint256",
          "name": "",
          "type": "uint256"
        }
      ],
      "stateMutability": "view",
      "type": "function"
    },
    {
      "inputs": [
        {
          "internalType": "uint256",
          "name": "tokenId",
          "type": "uint256"
        }
      ],
      "name": "getApproved",
      "outputs": [
        {
          "internalType": "address",
          "name": "",
          "type": "address"
        }
      ],
      "stateMutability": "view",
      "type": "function"
    },
    {
      "inputs": [
        {
          "internalType": "uint256",
          "name": "moddedRng",
          "type": "uint256"
        }
      ],
      "name": "getBreedFromModdedRng",
      "outputs": [
        {
          "internalType": "enum RandomIPFSNFT.Breed",
          "name": "",
          "type": "uint8"
        }
      ],
      "stateMutability": "pure",
      "type": "function"
    },
    {
      "inputs": [],
      "name": "getChanceArray",
      "outputs": [
        {
          "internalType": "uint256[3]",
          "name": "",
          "type": "uint256[3]"
        }
      ],
      "stateMutability": "pure",
      "type": "function"
    },
    {
      "inputs": [
        {
          "internalType": "uint256",
          "name": "index",
          "type": "uint256"
        }
      ],
      "name": "getDogTokenUris",
      "outputs": [
        {
          "internalType": "string",
          "name": "",
          "type": "string"
        }
      ],
      "stateMutability": "view",
      "type": "function"
    },
    {
      "inputs": [],
      "name": "getMintFee",
      "outputs": [
        {
          "internalType": "uint256",
          "name": "",
          "type": "uint256"
        }
      ],
      "stateMutability": "view",
      "type": "function"
    },
    {
      "inputs": [],
      "name": "getTokenCounter",
      "outputs": [
        {
          "internalType": "uint256",
          "name": "",
          "type": "uint256"
        }
      ],
      "stateMutability": "view",
      "type": "function"
    },
    {
      "inputs": [
        {
          "internalType": "address",
          "name": "owner",
          "type": "address"
        },
        {
          "internalType": "address",
          "name": "operator",
          "type": "address"
        }
      ],
      "name": "isApprovedForAll",
      "outputs": [
        {
          "internalType": "bool",
          "name": "",
          "type": "bool"
        }
      ],
      "stateMutability": "view",
      "type": "function"
    },
    {
      "inputs": [],
      "name": "name",
      "outputs": [
        {
          "internalType": "string",
          "name": "",
          "type": "string"
        }
      ],
      "stateMutability": "view",
      "type": "function"
    },
    {
      "inputs": [],
      "name": "owner",
      "outputs": [
        {
          "internalType": "address",
          "name": "",
          "type": "address"
        }
      ],
      "stateMutability": "view",
      "type": "function"
    },
    {
      "inputs": [
        {
          "internalType": "uint256",
          "name": "tokenId",
          "type": "uint256"
        }
      ],
      "name": "ownerOf",
      "outputs": [
        {
          "internalType": "address",
          "name": "",
          "type": "address"
        }
      ],
      "stateMutability": "view",
      "type": "function"
    },
    {
      "inputs": [
        {
          "internalType": "uint256",
          "name": "requestId",
          "type": "uint256"
        },
        {
          "internalType": "uint256[]",
          "name": "randomWords",
          "type": "uint256[]"
        }
      ],
      "name": "rawFulfillRandomWords",
      "outputs": [],
      "stateMutability": "nonpayable",
      "type": "function"
    },
    {
      "inputs": [],
      "name": "renounceOwnership",
      "outputs": [],
      "stateMutability": "nonpayable",
      "type": "function"
    },
    {
      "inputs": [],
      "name": "requestNft",
      "outputs": [
        {
          "internalType": "uint256",
          "name": "requestId",
          "type": "uint256"
        }
      ],
      "stateMutability": "payable",
      "type": "function"
    },
    {
      "inputs": [
        {
          "internalType": "uint256",
          "name": "",
          "type": "uint256"
        }
      ],
      "name": "s_requestIdToSender",
      "outputs": [
        {
          "internalType": "address",
          "name": "",
          "type": "address"
        }
      ],
      "stateMutability": "view",
      "type": "function"
    },
    {
      "inputs": [],
      "name": "s_tokenCounter",
      "outputs": [
        {
          "internalType": "uint256",
          "name": "",
          "type": "uint256"
        }
      ],
      "stateMutability": "view",
      "type": "function"
    },
    {
      "inputs": [
        {
          "internalType": "address",
          "name": "from",
          "type": "address"
        },
        {
          "internalType": "address",
          "name": "to",
          "type": "address"
        },
        {
          "internalType": "uint256",
          "name": "tokenId",
          "type": "uint256"
        }
      ],
      "name": "safeTransferFrom",
      "outputs": [],
      "stateMutability": "nonpayable",
      "type": "function"
    },
    {
      "inputs": [
        {
          "internalType": "address",
          "name": "from",
          "type": "address"
        },
        {
          "internalType": "address",
          "name": "to",
          "type": "address"
        },
        {
          "internalType": "uint256",
          "name": "tokenId",
          "type": "uint256"
        },
        {
          "internalType": "bytes",
          "name": "data",
          "type": "bytes"
        }
      ],
      "name": "safeTransferFrom",
      "outputs": [],
      "stateMutability": "nonpayable",
      "type": "function"
    },
    {
      "inputs": [
        {
          "internalType": "address",
          "name": "operator",
          "type": "address"
        },
        {
          "internalType": "bool",
          "name": "approved",
          "type": "bool"
        }
      ],
      "name": "setApprovalForAll",
      "outputs": [],
      "stateMutability": "nonpayable",
      "type": "function"
    },
    {
      "inputs": [
        {
          "internalType": "bytes4",
          "name": "interfaceId",
          "type": "bytes4"
        }
      ],
      "name": "supportsInterface",
      "outputs": [
        {
          "internalType": "bool",
          "name": "",
          "type": "bool"
        }
      ],
      "stateMutability": "view",
      "type": "function"
    },
    {
      "inputs": [],
      "name": "symbol",
      "outputs": [
        {
          "internalType": "string",
          "name": "",
          "type": "string"
        }
      ],
      "stateMutability": "view",
      "type": "function"
    },
    {
      "inputs": [
        {
          "internalType": "uint256",
          "name": "tokenId",
          "type": "uint256"
        }
      ],
      "name": "tokenURI",
      "outputs": [
        {
          "internalType": "string",
          "name": "",
          "type": "string"
        }
      ],
      "stateMutability": "view",
      "type": "function"
    },
    {
      "inputs": [
        {
          "internalType": "address",
          "name": "from",
          "type": "address"
        },
        {
          "internalType": "address",
          "name": "to",
          "type": "address"
        },
        {
          "internalType": "uint256",
          "name": "tokenId",
          "type": "uint256"
        }
      ],
      "name": "transferFrom",
      "outputs": [],
      "stateMutability": "nonpayable",
      "type": "function"
    },
    {
      "inputs": [
        {
          "internalType": "address",
          "name": "newOwner",
          "type": "address"
        }
      ],
      "name": "transferOwnership",
      "outputs": [],
      "stateMutability": "nonpayable",
      "type": "function"
    },
    {
      "inputs": [],
      "name": "withdraw",
      "outputs": [],
      "stateMutability": "nonpayable",
      "type": "function"
    }
  ],
  "transactionHash": "0xa5a2f4adce9633904ae2dda92c2523bad66151c80120e17bd234fe36fc2791f7",
  "args": [
    "0x5FbDB2315678afecb367f032d93F642f64180aa3",
    "1",
    "0x79d3d8832d904592c0bf9818b621522c988bb8b0c05cdc3b15aea1b6e8db0c15",
    "500000",
    [
      "ipfs://QmaVkBn2tKmjbhphU7eyztbvSQU5EXDdqRyXZtRhSGgJGo",
      "ipfs://QmYQC5aGZu2PTH8XzbJrbDnvhj3gVs7ya33H9mqUNvST3d",
      "ipfs://QmZYmH5iDbD6v3U2ixoVAjioSzvWJszDzYdbeCLquGSpVm"
    ],
    "10000000000000000"
  ],
  "numDeployments": 1,
  "solcInputHash": "7add876f39eb4103478c85f3450f272f",
  "bytecode": "0x6101406040523480156200001257600080fd5b5060405162004574380380620045748339818101604052810190620000389190620005d7565b6040518060400160405280600f81526020017f52616e646f6d2049504653204e465400000000000000000000000000000000008152506040518060400160405280600381526020017f52494e0000000000000000000000000000000000000000000000000000000000815250878073ffffffffffffffffffffffffffffffffffffffff1660808173ffffffffffffffffffffffffffffffffffffffff1660601b81525050508160009080519060200190620000f59291906200029e565b5080600190805190602001906200010e9291906200029e565b5050506200013162000125620001d060201b60201c565b620001d860201b60201c565b8573ffffffffffffffffffffffffffffffffffffffff1660a08173ffffffffffffffffffffffffffffffffffffffff1660601b815250508467ffffffffffffffff1660c08167ffffffffffffffff1660c01b815250508360e081815250508263ffffffff166101008163ffffffff1660e01b8152505081600a906003620001ba9291906200032f565b5080610120818152505050505050505062000932565b600033905090565b6000600760009054906101000a900473ffffffffffffffffffffffffffffffffffffffff16905081600760006101000a81548173ffffffffffffffffffffffffffffffffffffffff021916908373ffffffffffffffffffffffffffffffffffffffff1602179055508173ffffffffffffffffffffffffffffffffffffffff168173ffffffffffffffffffffffffffffffffffffffff167f8be0079c531659141344cd1fd0a4f28419497f9722a3daafe3b4186f6b6457e060405160405180910390a35050565b828054620002ac90620007bc565b90600052602060002090601f016020900481019282620002d057600085556200031c565b82601f10620002eb57805160ff19168380011785556200031c565b828001600101855582156200031c579182015b828111156200031b578251825591602001919060010190620002fe565b5b5090506200032b919062000396565b5090565b82805482825590600052602060002090810192821562000383579160200282015b8281111562000382578251829080519060200190620003719291906200029e565b509160200191906001019062000350565b5b509050620003929190620003b5565b5090565b5b80821115620003b157600081600090555060010162000397565b5090565b5b80821115620003d95760008181620003cf9190620003dd565b50600101620003b6565b5090565b508054620003eb90620007bc565b6000825580601f10620003ff575062000420565b601f0160209004906000526020600020908101906200041f919062000396565b5b50565b60006200043a6200043484620006bb565b62000692565b905080828560208602820111156200045757620004566200088b565b5b60005b85811015620004ac57815167ffffffffffffffff81111562000481576200048062000886565b5b8086016200049089826200055f565b855260208501945060208401935050506001810190506200045a565b5050509392505050565b6000620004cd620004c784620006e4565b62000692565b905082815260208101848484011115620004ec57620004eb62000890565b5b620004f984828562000786565b509392505050565b6000815190506200051281620008b0565b92915050565b600082601f83011262000530576200052f62000886565b5b60036200053f84828562000423565b91505092915050565b6000815190506200055981620008ca565b92915050565b600082601f83011262000577576200057662000886565b5b815162000589848260208601620004b6565b91505092915050565b600081519050620005a381620008e4565b92915050565b600081519050620005ba81620008fe565b92915050565b600081519050620005d18162000918565b92915050565b60008060008060008060c08789031215620005f757620005f66200089a565b5b60006200060789828a0162000501565b96505060206200061a89828a01620005c0565b95505060406200062d89828a0162000548565b94505060606200064089828a01620005a9565b935050608087015167ffffffffffffffff81111562000664576200066362000895565b5b6200067289828a0162000518565b92505060a06200068589828a0162000592565b9150509295509295509295565b60006200069e620006b1565b9050620006ac8282620007f2565b919050565b6000604051905090565b600067ffffffffffffffff821115620006d957620006d862000857565b5b602082029050919050565b600067ffffffffffffffff82111562000702576200070162000857565b5b6200070d826200089f565b9050602081019050919050565b6000620007278262000738565b9050919050565b6000819050919050565b600073ffffffffffffffffffffffffffffffffffffffff82169050919050565b6000819050919050565b600063ffffffff82169050919050565b600067ffffffffffffffff82169050919050565b60005b83811015620007a657808201518184015260208101905062000789565b83811115620007b6576000848401525b50505050565b60006002820490506001821680620007d557607f821691505b60208210811415620007ec57620007eb62000828565b5b50919050565b620007fd826200089f565b810181811067ffffffffffffffff821117156200081f576200081e62000857565b5b80604052505050565b7f4e487b7100000000000000000000000000000000000000000000000000000000600052602260045260246000fd5b7f4e487b7100000000000000000000000000000000000000000000000000000000600052604160045260246000fd5b600080fd5b600080fd5b600080fd5b600080fd5b600080fd5b6000601f19601f8301169050919050565b620008bb816200071a565b8114620008c757600080fd5b50565b620008d5816200072e565b8114620008e157600080fd5b50565b620008ef8162000758565b8114620008fb57600080fd5b50565b620009098162000762565b81146200091557600080fd5b50565b620009238162000772565b81146200092f57600080fd5b50565b60805160601c60a05160601c60c05160c01c60e0516101005160e01c61012051613bd86200099c60003960008181610d4b0152610f2b0152600061100501526000610fc101526000610fe201526000610f8501526000818161091d01526109710152613bd86000f3fe6080604052600436106101815760003560e01c806370a08231116100d1578063a36f573b1161008a578063b88d4fde11610064578063b88d4fde14610577578063c87b56dd146105a0578063e985e9c5146105dd578063f2fde38b1461061a57610181565b8063a36f573b146104df578063a51cccf31461051c578063aa1524911461055957610181565b806370a08231146103e1578063715018a61461041e5780637a5caab3146104355780638da5cb5b1461046057806395d89b411461048b578063a22cb465146104b657610181565b806323b872dd1161013e57806342842e0e1161011857806342842e0e146103255780635dacf5f41461034e5780636352211e146103795780636e02007d146103b657610181565b806323b872dd146102a85780633af25975146102d15780633ccfd60b1461030e57610181565b806301ffc9a71461018657806306fdde03146101c3578063081812fc146101ee578063095ea7b31461022b5780630b21a83b146102545780631fe543e31461027f575b600080fd5b34801561019257600080fd5b506101ad60048036038101906101a89190612a93565b610643565b6040516101ba919061302d565b60405180910390f35b3480156101cf57600080fd5b506101d8610725565b6040516101e591906130df565b60405180910390f35b3480156101fa57600080fd5b5061021560048036038101906102109190612aed565b6107b7565b6040516102229190612f82565b60405180910390f35b34801561023757600080fd5b50610252600480360381019061024d9190612a53565b6107fd565b005b34801561026057600080fd5b50610269610915565b60405161027691906132c1565b60405180910390f35b34801561028b57600080fd5b506102a660048036038101906102a19190612b47565b61091b565b005b3480156102b457600080fd5b506102cf60048036038101906102ca919061293d565b6109db565b005b3480156102dd57600080fd5b506102f860048036038101906102f39190612aed565b610a3b565b60405161030591906130df565b60405180910390f35b34801561031a57600080fd5b50610323610aeb565b005b34801561033157600080fd5b5061034c6004803603810190610347919061293d565b610b9f565b005b34801561035a57600080fd5b50610363610bbf565b6040516103709190613012565b60405180910390f35b34801561038557600080fd5b506103a0600480360381019061039b9190612aed565b610bea565b6040516103ad9190612f82565b60405180910390f35b3480156103c257600080fd5b506103cb610c71565b6040516103d891906132c1565b60405180910390f35b3480156103ed57600080fd5b50610408600480360381019061040391906128d0565b610c7b565b60405161041591906132c1565b60405180910390f35b34801561042a57600080fd5b50610433610d33565b005b34801561044157600080fd5b5061044a610d47565b60405161045791906132c1565b60405180910390f35b34801561046c57600080fd5b50610475610d6f565b6040516104829190612f82565b60405180910390f35b34801561049757600080fd5b506104a0610d99565b6040516104ad91906130df565b60405180910390f35b3480156104c257600080fd5b506104dd60048036038101906104d89190612a13565b610e2b565b005b3480156104eb57600080fd5b5061050660048036038101906105019190612aed565b610e41565b6040516105139190612f82565b60405180910390f35b34801561052857600080fd5b50610543600480360381019061053e9190612aed565b610e74565b604051610550919061309b565b60405180910390f35b610561610f27565b60405161056e91906132c1565b60405180910390f35b34801561058357600080fd5b5061059e60048036038101906105999190612990565b611127565b005b3480156105ac57600080fd5b506105c760048036038101906105c29190612aed565b611189565b6040516105d491906130df565b60405180910390f35b3480156105e957600080fd5b5061060460048036038101906105ff91906128fd565b61129c565b604051610611919061302d565b60405180910390f35b34801561062657600080fd5b50610641600480360381019061063c91906128d0565b611330565b005b60007f80ac58cd000000000000000000000000000000000000000000000000000000007bffffffffffffffffffffffffffffffffffffffffffffffffffffffff1916827bffffffffffffffffffffffffffffffffffffffffffffffffffffffff1916148061070e57507f5b5e139f000000000000000000000000000000000000000000000000000000007bffffffffffffffffffffffffffffffffffffffffffffffffffffffff1916827bffffffffffffffffffffffffffffffffffffffffffffffffffffffff1916145b8061071e575061071d826113b4565b5b9050919050565b6060600080546107349061357a565b80601f01602080910402602001604051908101604052809291908181526020018280546107609061357a565b80156107ad5780601f10610782576101008083540402835291602001916107ad565b820191906000526020600020905b81548152906001019060200180831161079057829003601f168201915b5050505050905090565b60006107c28261141e565b6004600083815260200190815260200160002060009054906101000a900473ffffffffffffffffffffffffffffffffffffffff169050919050565b600061080882610bea565b90508073ffffffffffffffffffffffffffffffffffffffff168373ffffffffffffffffffffffffffffffffffffffff161415610879576040517f08c379a000000000000000000000000000000000000000000000000000000000815260040161087090613281565b60405180910390fd5b8073ffffffffffffffffffffffffffffffffffffffff16610898611469565b73ffffffffffffffffffffffffffffffffffffffff1614806108c757506108c6816108c1611469565b61129c565b5b610906576040517f08c379a00000000000000000000000000000000000000000000000000000000081526004016108fd906132a1565b60405180910390fd5b6109108383611471565b505050565b60095481565b7f000000000000000000000000000000000000000000000000000000000000000073ffffffffffffffffffffffffffffffffffffffff163373ffffffffffffffffffffffffffffffffffffffff16146109cd57337f00000000000000000000000000000000000000000000000000000000000000006040517f1cf993f40000000000000000000000000000000000000000000000000000000081526004016109c4929190612f9d565b60405180910390fd5b6109d7828261152a565b5050565b6109ec6109e6611469565b826116ca565b610a2b576040517f08c379a0000000000000000000000000000000000000000000000000000000008152600401610a2290613101565b60405180910390fd5b610a3683838361175f565b505050565b6060600a8281548110610a5157610a50613713565b5b906000526020600020018054610a669061357a565b80601f0160208091040260200160405190810160405280929190818152602001828054610a929061357a565b8015610adf5780601f10610ab457610100808354040283529160200191610adf565b820191906000526020600020905b815481529060010190602001808311610ac257829003601f168201915b50505050509050919050565b610af3611a59565b600047905060003373ffffffffffffffffffffffffffffffffffffffff1682604051610b1e90612f6d565b60006040518083038185875af1925050503d8060008114610b5b576040519150601f19603f3d011682016040523d82523d6000602084013e610b60565b606091505b5050905080610b9b576040517fff2f968b00000000000000000000000000000000000000000000000000000000815260040160405180910390fd5b5050565b610bba83838360405180602001604052806000815250611127565b505050565b610bc761267f565b6040518060600160405280600a8152602001601e81526020016064815250905090565b600080610bf683611ad7565b9050600073ffffffffffffffffffffffffffffffffffffffff168173ffffffffffffffffffffffffffffffffffffffff161415610c68576040517f08c379a0000000000000000000000000000000000000000000000000000000008152600401610c5f90613261565b60405180910390fd5b80915050919050565b6000600954905090565b60008073ffffffffffffffffffffffffffffffffffffffff168273ffffffffffffffffffffffffffffffffffffffff161415610cec576040517f08c379a0000000000000000000000000000000000000000000000000000000008152600401610ce3906131e1565b60405180910390fd5b600360008373ffffffffffffffffffffffffffffffffffffffff1673ffffffffffffffffffffffffffffffffffffffff168152602001908152602001600020549050919050565b610d3b611a59565b610d456000611b14565b565b60007f0000000000000000000000000000000000000000000000000000000000000000905090565b6000600760009054906101000a900473ffffffffffffffffffffffffffffffffffffffff16905090565b606060018054610da89061357a565b80601f0160208091040260200160405190810160405280929190818152602001828054610dd49061357a565b8015610e215780601f10610df657610100808354040283529160200191610e21565b820191906000526020600020905b815481529060010190602001808311610e0457829003601f168201915b5050505050905090565b610e3d610e36611469565b8383611bda565b5050565b60086020528060005260406000206000915054906101000a900473ffffffffffffffffffffffffffffffffffffffff1681565b600080600090506000610e85610bbf565b905060005b6003811015610f1e57828510158015610ec45750818160038110610eb157610eb0613713565b5b602002015183610ec191906133d9565b85105b15610ee657806002811115610edc57610edb6136b5565b5b9350505050610f22565b818160038110610ef957610ef8613713565b5b602002015183610f0991906133d9565b92508080610f16906135dd565b915050610e8a565b5050505b919050565b60007f0000000000000000000000000000000000000000000000000000000000000000341015610f83576040517f5a4ade7b00000000000000000000000000000000000000000000000000000000815260040160405180910390fd5b7f000000000000000000000000000000000000000000000000000000000000000073ffffffffffffffffffffffffffffffffffffffff16635d3b1d307f00000000000000000000000000000000000000000000000000000000000000007f000000000000000000000000000000000000000000000000000000000000000060037f000000000000000000000000000000000000000000000000000000000000000060016040518663ffffffff1660e01b8152600401611046959493929190613048565b602060405180830381600087803b15801561106057600080fd5b505af1158015611074573d6000803e3d6000fd5b505050506040513d601f19601f820116820180604052508101906110989190612b1a565b9050336008600083815260200190815260200160002060006101000a81548173ffffffffffffffffffffffffffffffffffffffff021916908373ffffffffffffffffffffffffffffffffffffffff160217905550807ff873236e6cc0ecc5be1a9a35c95ee5b8d1ac4cc7bfef0cc5060391d6cc98e26b3360405161111c9190612f82565b60405180910390a290565b611138611132611469565b836116ca565b611177576040517f08c379a000000000000000000000000000000000000000000000000000000000815260040161116e90613101565b60405180910390fd5b61118384848484611d47565b50505050565b60606111948261141e565b60006006600084815260200190815260200160002080546111b49061357a565b80601f01602080910402602001604051908101604052809291908181526020018280546111e09061357a565b801561122d5780601f106112025761010080835404028352916020019161122d565b820191906000526020600020905b81548152906001019060200180831161121057829003601f168201915b50505050509050600061123e611da3565b9050600081511415611254578192505050611297565b600082511115611289578082604051602001611271929190612f49565b60405160208183030381529060405292505050611297565b61129284611dba565b925050505b919050565b6000600560008473ffffffffffffffffffffffffffffffffffffffff1673ffffffffffffffffffffffffffffffffffffffff16815260200190815260200160002060008373ffffffffffffffffffffffffffffffffffffffff1673ffffffffffffffffffffffffffffffffffffffff16815260200190815260200160002060009054906101000a900460ff16905092915050565b611338611a59565b600073ffffffffffffffffffffffffffffffffffffffff168173ffffffffffffffffffffffffffffffffffffffff1614156113a8576040517f08c379a000000000000000000000000000000000000000000000000000000000815260040161139f90613141565b60405180910390fd5b6113b181611b14565b50565b60007f01ffc9a7000000000000000000000000000000000000000000000000000000007bffffffffffffffffffffffffffffffffffffffffffffffffffffffff1916827bffffffffffffffffffffffffffffffffffffffffffffffffffffffff1916149050919050565b61142781611e22565b611466576040517f08c379a000000000000000000000000000000000000000000000000000000000815260040161145d90613261565b60405180910390fd5b50565b600033905090565b816004600083815260200190815260200160002060006101000a81548173ffffffffffffffffffffffffffffffffffffffff021916908373ffffffffffffffffffffffffffffffffffffffff160217905550808273ffffffffffffffffffffffffffffffffffffffff166114e483610bea565b73ffffffffffffffffffffffffffffffffffffffff167f8c5be1e5ebec7d5bd14f71427d1e84f3dd0314c0f7b2291e5b200ac8c7c3b92560405160405180910390a45050565b60006008600084815260200190815260200160002060009054906101000a900473ffffffffffffffffffffffffffffffffffffffff16905060006009549050600060648460008151811061158157611580613713565b5b60200260200101516115939190613626565b905060006115a082610e74565b9050600954600960008282546115b691906133d9565b925050819055506115c78484611e63565b61168983600a8360028111156115e0576115df6136b5565b5b815481106115f1576115f0613713565b5b9060005260206000200180546116069061357a565b80601f01602080910402602001604051908101604052809291908181526020018280546116329061357a565b801561167f5780601f106116545761010080835404028352916020019161167f565b820191906000526020600020905b81548152906001019060200180831161166257829003601f168201915b5050505050611e81565b7f8a269f26b688e110e9cbd887d163dab35cae678fa353a0292de532c0cac1ecdc81856040516116ba9291906130b6565b60405180910390a1505050505050565b6000806116d683610bea565b90508073ffffffffffffffffffffffffffffffffffffffff168473ffffffffffffffffffffffffffffffffffffffff1614806117185750611717818561129c565b5b8061175657508373ffffffffffffffffffffffffffffffffffffffff1661173e846107b7565b73ffffffffffffffffffffffffffffffffffffffff16145b91505092915050565b8273ffffffffffffffffffffffffffffffffffffffff1661177f82610bea565b73ffffffffffffffffffffffffffffffffffffffff16146117d5576040517f08c379a00000000000000000000000000000000000000000000000000000000081526004016117cc90613161565b60405180910390fd5b600073ffffffffffffffffffffffffffffffffffffffff168273ffffffffffffffffffffffffffffffffffffffff161415611845576040517f08c379a000000000000000000000000000000000000000000000000000000000815260040161183c906131a1565b60405180910390fd5b6118528383836001611ef5565b8273ffffffffffffffffffffffffffffffffffffffff1661187282610bea565b73ffffffffffffffffffffffffffffffffffffffff16146118c8576040517f08c379a00000000000000000000000000000000000000000000000000000000081526004016118bf90613161565b60405180910390fd5b6004600082815260200190815260200160002060006101000a81549073ffffffffffffffffffffffffffffffffffffffff02191690556001600360008573ffffffffffffffffffffffffffffffffffffffff1673ffffffffffffffffffffffffffffffffffffffff168152602001908152602001600020600082825403925050819055506001600360008473ffffffffffffffffffffffffffffffffffffffff1673ffffffffffffffffffffffffffffffffffffffff16815260200190815260200160002060008282540192505081905550816002600083815260200190815260200160002060006101000a81548173ffffffffffffffffffffffffffffffffffffffff021916908373ffffffffffffffffffffffffffffffffffffffff160217905550808273ffffffffffffffffffffffffffffffffffffffff168473ffffffffffffffffffffffffffffffffffffffff167fddf252ad1be2c89b69c2b068fc378daa952ba7f163c4a11628f55a4df523b3ef60405160405180910390a4611a54838383600161201b565b505050565b611a61611469565b73ffffffffffffffffffffffffffffffffffffffff16611a7f610d6f565b73ffffffffffffffffffffffffffffffffffffffff1614611ad5576040517f08c379a0000000000000000000000000000000000000000000000000000000008152600401611acc90613241565b60405180910390fd5b565b60006002600083815260200190815260200160002060009054906101000a900473ffffffffffffffffffffffffffffffffffffffff169050919050565b6000600760009054906101000a900473ffffffffffffffffffffffffffffffffffffffff16905081600760006101000a81548173ffffffffffffffffffffffffffffffffffffffff021916908373ffffffffffffffffffffffffffffffffffffffff1602179055508173ffffffffffffffffffffffffffffffffffffffff168173ffffffffffffffffffffffffffffffffffffffff167f8be0079c531659141344cd1fd0a4f28419497f9722a3daafe3b4186f6b6457e060405160405180910390a35050565b8173ffffffffffffffffffffffffffffffffffffffff168373ffffffffffffffffffffffffffffffffffffffff161415611c49576040517f08c379a0000000000000000000000000000000000000000000000000000000008152600401611c40906131c1565b60405180910390fd5b80600560008573ffffffffffffffffffffffffffffffffffffffff1673ffffffffffffffffffffffffffffffffffffffff16815260200190815260200160002060008473ffffffffffffffffffffffffffffffffffffffff1673ffffffffffffffffffffffffffffffffffffffff16815260200190815260200160002060006101000a81548160ff0219169083151502179055508173ffffffffffffffffffffffffffffffffffffffff168373ffffffffffffffffffffffffffffffffffffffff167f17307eab39ab6107e8899845ad3d59bd9653f200f220920489ca2b5937696c3183604051611d3a919061302d565b60405180910390a3505050565b611d5284848461175f565b611d5e84848484612021565b611d9d576040517f08c379a0000000000000000000000000000000000000000000000000000000008152600401611d9490613121565b60405180910390fd5b50505050565b606060405180602001604052806000815250905090565b6060611dc58261141e565b6000611dcf611da3565b90506000815111611def5760405180602001604052806000815250611e1a565b80611df9846121b8565b604051602001611e0a929190612f49565b6040516020818303038152906040525b915050919050565b60008073ffffffffffffffffffffffffffffffffffffffff16611e4483611ad7565b73ffffffffffffffffffffffffffffffffffffffff1614159050919050565b611e7d828260405180602001604052806000815250612290565b5050565b611e8a82611e22565b611ec9576040517f08c379a0000000000000000000000000000000000000000000000000000000008152600401611ec090613201565b60405180910390fd5b80600660008481526020019081526020016000209080519060200190611ef09291906126a1565b505050565b600181111561201557600073ffffffffffffffffffffffffffffffffffffffff168473ffffffffffffffffffffffffffffffffffffffff1614611f895780600360008673ffffffffffffffffffffffffffffffffffffffff1673ffffffffffffffffffffffffffffffffffffffff1681526020019081526020016000206000828254611f81919061342f565b925050819055505b600073ffffffffffffffffffffffffffffffffffffffff168373ffffffffffffffffffffffffffffffffffffffff16146120145780600360008573ffffffffffffffffffffffffffffffffffffffff1673ffffffffffffffffffffffffffffffffffffffff168152602001908152602001600020600082825461200c91906133d9565b925050819055505b5b50505050565b50505050565b60006120428473ffffffffffffffffffffffffffffffffffffffff166122eb565b156121ab578373ffffffffffffffffffffffffffffffffffffffff1663150b7a0261206b611469565b8786866040518563ffffffff1660e01b815260040161208d9493929190612fc6565b602060405180830381600087803b1580156120a757600080fd5b505af19250505080156120d857506040513d601f19601f820116820180604052508101906120d59190612ac0565b60015b61215b573d8060008114612108576040519150601f19603f3d011682016040523d82523d6000602084013e61210d565b606091505b50600081511415612153576040517f08c379a000000000000000000000000000000000000000000000000000000000815260040161214a90613121565b60405180910390fd5b805181602001fd5b63150b7a0260e01b7bffffffffffffffffffffffffffffffffffffffffffffffffffffffff1916817bffffffffffffffffffffffffffffffffffffffffffffffffffffffff1916149150506121b0565b600190505b949350505050565b6060600060016121c78461230e565b01905060008167ffffffffffffffff8111156121e6576121e5613742565b5b6040519080825280601f01601f1916602001820160405280156122185781602001600182028036833780820191505090505b509050600082602001820190505b600115612285578080600190039150507f3031323334353637383961626364656600000000000000000000000000000000600a86061a8153600a858161226f5761226e613686565b5b049450600085141561228057612285565b612226565b819350505050919050565b61229a8383612461565b6122a76000848484612021565b6122e6576040517f08c379a00000000000000000000000000000000000000000000000000000000081526004016122dd90613121565b60405180910390fd5b505050565b6000808273ffffffffffffffffffffffffffffffffffffffff163b119050919050565b600080600090507a184f03e93ff9f4daa797ed6e38ed64bf6a1f010000000000000000831061236c577a184f03e93ff9f4daa797ed6e38ed64bf6a1f010000000000000000838161236257612361613686565b5b0492506040810190505b6d04ee2d6d415b85acef810000000083106123a9576d04ee2d6d415b85acef8100000000838161239f5761239e613686565b5b0492506020810190505b662386f26fc1000083106123d857662386f26fc1000083816123ce576123cd613686565b5b0492506010810190505b6305f5e1008310612401576305f5e10083816123f7576123f6613686565b5b0492506008810190505b612710831061242657612710838161241c5761241b613686565b5b0492506004810190505b60648310612449576064838161243f5761243e613686565b5b0492506002810190505b600a8310612458576001810190505b80915050919050565b600073ffffffffffffffffffffffffffffffffffffffff168273ffffffffffffffffffffffffffffffffffffffff1614156124d1576040517f08c379a00000000000000000000000000000000000000000000000000000000081526004016124c890613221565b60405180910390fd5b6124da81611e22565b1561251a576040517f08c379a000000000000000000000000000000000000000000000000000000000815260040161251190613181565b60405180910390fd5b612528600083836001611ef5565b61253181611e22565b15612571576040517f08c379a000000000000000000000000000000000000000000000000000000000815260040161256890613181565b60405180910390fd5b6001600360008473ffffffffffffffffffffffffffffffffffffffff1673ffffffffffffffffffffffffffffffffffffffff16815260200190815260200160002060008282540192505081905550816002600083815260200190815260200160002060006101000a81548173ffffffffffffffffffffffffffffffffffffffff021916908373ffffffffffffffffffffffffffffffffffffffff160217905550808273ffffffffffffffffffffffffffffffffffffffff16600073ffffffffffffffffffffffffffffffffffffffff167fddf252ad1be2c89b69c2b068fc378daa952ba7f163c4a11628f55a4df523b3ef60405160405180910390a461267b60008383600161201b565b5050565b6040518060600160405280600390602082028036833780820191505090505090565b8280546126ad9061357a565b90600052602060002090601f0160209004810192826126cf5760008555612716565b82601f106126e857805160ff1916838001178555612716565b82800160010185558215612716579182015b828111156127155782518255916020019190600101906126fa565b5b5090506127239190612727565b5090565b5b80821115612740576000816000905550600101612728565b5090565b600061275761275284613301565b6132dc565b9050808382526020820190508285602086028201111561277a57612779613776565b5b60005b858110156127aa578161279088826128a6565b84526020840193506020830192505060018101905061277d565b5050509392505050565b60006127c76127c28461332d565b6132dc565b9050828152602081018484840111156127e3576127e261377b565b5b6127ee848285613538565b509392505050565b60008135905061280581613b46565b92915050565b600082601f8301126128205761281f613771565b5b8135612830848260208601612744565b91505092915050565b60008135905061284881613b5d565b92915050565b60008135905061285d81613b74565b92915050565b60008151905061287281613b74565b92915050565b600082601f83011261288d5761288c613771565b5b813561289d8482602086016127b4565b91505092915050565b6000813590506128b581613b8b565b92915050565b6000815190506128ca81613b8b565b92915050565b6000602082840312156128e6576128e5613785565b5b60006128f4848285016127f6565b91505092915050565b6000806040838503121561291457612913613785565b5b6000612922858286016127f6565b9250506020612933858286016127f6565b9150509250929050565b60008060006060848603121561295657612955613785565b5b6000612964868287016127f6565b9350506020612975868287016127f6565b9250506040612986868287016128a6565b9150509250925092565b600080600080608085870312156129aa576129a9613785565b5b60006129b8878288016127f6565b94505060206129c9878288016127f6565b93505060406129da878288016128a6565b925050606085013567ffffffffffffffff8111156129fb576129fa613780565b5b612a0787828801612878565b91505092959194509250565b60008060408385031215612a2a57612a29613785565b5b6000612a38858286016127f6565b9250506020612a4985828601612839565b9150509250929050565b60008060408385031215612a6a57612a69613785565b5b6000612a78858286016127f6565b9250506020612a89858286016128a6565b9150509250929050565b600060208284031215612aa957612aa8613785565b5b6000612ab78482850161284e565b91505092915050565b600060208284031215612ad657612ad5613785565b5b6000612ae484828501612863565b91505092915050565b600060208284031215612b0357612b02613785565b5b6000612b11848285016128a6565b91505092915050565b600060208284031215612b3057612b2f613785565b5b6000612b3e848285016128bb565b91505092915050565b60008060408385031215612b5e57612b5d613785565b5b6000612b6c858286016128a6565b925050602083013567ffffffffffffffff811115612b8d57612b8c613780565b5b612b998582860161280b565b9150509250929050565b6000612baf8383612f0d565b60208301905092915050565b612bc481613463565b82525050565b612bd381613368565b612bdd8184613396565b9250612be88261335e565b8060005b83811015612c19578151612c008782612ba3565b9650612c0b83613389565b925050600181019050612bec565b505050505050565b612c2a81613475565b82525050565b612c3981613481565b82525050565b6000612c4a82613373565b612c5481856133a1565b9350612c64818560208601613547565b612c6d8161378a565b840191505092915050565b612c8181613526565b82525050565b6000612c928261337e565b612c9c81856133bd565b9350612cac818560208601613547565b612cb58161378a565b840191505092915050565b6000612ccb8261337e565b612cd581856133ce565b9350612ce5818560208601613547565b80840191505092915050565b6000612cfe602d836133bd565b9150612d098261379b565b604082019050919050565b6000612d216032836133bd565b9150612d2c826137ea565b604082019050919050565b6000612d446026836133bd565b9150612d4f82613839565b604082019050919050565b6000612d676025836133bd565b9150612d7282613888565b604082019050919050565b6000612d8a601c836133bd565b9150612d95826138d7565b602082019050919050565b6000612dad6024836133bd565b9150612db882613900565b604082019050919050565b6000612dd06019836133bd565b9150612ddb8261394f565b602082019050919050565b6000612df36029836133bd565b9150612dfe82613978565b604082019050919050565b6000612e16602e836133bd565b9150612e21826139c7565b604082019050919050565b6000612e396020836133bd565b9150612e4482613a16565b602082019050919050565b6000612e5c6020836133bd565b9150612e6782613a3f565b602082019050919050565b6000612e7f6018836133bd565b9150612e8a82613a68565b602082019050919050565b6000612ea26021836133bd565b9150612ead82613a91565b604082019050919050565b6000612ec56000836133b2565b9150612ed082613ae0565b600082019050919050565b6000612ee8603d836133bd565b9150612ef382613ae3565b604082019050919050565b612f07816134ca565b82525050565b612f16816134f8565b82525050565b612f25816134f8565b82525050565b612f3481613502565b82525050565b612f4381613512565b82525050565b6000612f558285612cc0565b9150612f618284612cc0565b91508190509392505050565b6000612f7882612eb8565b9150819050919050565b6000602082019050612f976000830184612bbb565b92915050565b6000604082019050612fb26000830185612bbb565b612fbf6020830184612bbb565b9392505050565b6000608082019050612fdb6000830187612bbb565b612fe86020830186612bbb565b612ff56040830185612f1c565b81810360608301526130078184612c3f565b905095945050505050565b60006060820190506130276000830184612bca565b92915050565b60006020820190506130426000830184612c21565b92915050565b600060a08201905061305d6000830188612c30565b61306a6020830187612f3a565b6130776040830186612efe565b6130846060830185612f2b565b6130916080830184612f2b565b9695505050505050565b60006020820190506130b06000830184612c78565b92915050565b60006040820190506130cb6000830185612c78565b6130d86020830184612bbb565b9392505050565b600060208201905081810360008301526130f98184612c87565b905092915050565b6000602082019050818103600083015261311a81612cf1565b9050919050565b6000602082019050818103600083015261313a81612d14565b9050919050565b6000602082019050818103600083015261315a81612d37565b9050919050565b6000602082019050818103600083015261317a81612d5a565b9050919050565b6000602082019050818103600083015261319a81612d7d565b9050919050565b600060208201905081810360008301526131ba81612da0565b9050919050565b600060208201905081810360008301526131da81612dc3565b9050919050565b600060208201905081810360008301526131fa81612de6565b9050919050565b6000602082019050818103600083015261321a81612e09565b9050919050565b6000602082019050818103600083015261323a81612e2c565b9050919050565b6000602082019050818103600083015261325a81612e4f565b9050919050565b6000602082019050818103600083015261327a81612e72565b9050919050565b6000602082019050818103600083015261329a81612e95565b9050919050565b600060208201905081810360008301526132ba81612edb565b9050919050565b60006020820190506132d66000830184612f1c565b92915050565b60006132e66132f7565b90506132f282826135ac565b919050565b6000604051905090565b600067ffffffffffffffff82111561331c5761331b613742565b5b602082029050602081019050919050565b600067ffffffffffffffff82111561334857613347613742565b5b6133518261378a565b9050602081019050919050565b6000819050919050565b600060039050919050565b600081519050919050565b600081519050919050565b6000602082019050919050565b600081905092915050565b600082825260208201905092915050565b600081905092915050565b600082825260208201905092915050565b600081905092915050565b60006133e4826134f8565b91506133ef836134f8565b9250827fffffffffffffffffffffffffffffffffffffffffffffffffffffffffffffffff0382111561342457613423613657565b5b828201905092915050565b600061343a826134f8565b9150613445836134f8565b92508282101561345857613457613657565b5b828203905092915050565b600061346e826134d8565b9050919050565b60008115159050919050565b6000819050919050565b60007fffffffff0000000000000000000000000000000000000000000000000000000082169050919050565b60008190506134c582613b32565b919050565b600061ffff82169050919050565b600073ffffffffffffffffffffffffffffffffffffffff82169050919050565b6000819050919050565b600063ffffffff82169050919050565b600067ffffffffffffffff82169050919050565b6000613531826134b7565b9050919050565b82818337600083830152505050565b60005b8381101561356557808201518184015260208101905061354a565b83811115613574576000848401525b50505050565b6000600282049050600182168061359257607f821691505b602082108114156135a6576135a56136e4565b5b50919050565b6135b58261378a565b810181811067ffffffffffffffff821117156135d4576135d3613742565b5b80604052505050565b60006135e8826134f8565b91507fffffffffffffffffffffffffffffffffffffffffffffffffffffffffffffffff82141561361b5761361a613657565b5b600182019050919050565b6000613631826134f8565b915061363c836134f8565b92508261364c5761364b613686565b5b828206905092915050565b7f4e487b7100000000000000000000000000000000000000000000000000000000600052601160045260246000fd5b7f4e487b7100000000000000000000000000000000000000000000000000000000600052601260045260246000fd5b7f4e487b7100000000000000000000000000000000000000000000000000000000600052602160045260246000fd5b7f4e487b7100000000000000000000000000000000000000000000000000000000600052602260045260246000fd5b7f4e487b7100000000000000000000000000000000000000000000000000000000600052603260045260246000fd5b7f4e487b7100000000000000000000000000000000000000000000000000000000600052604160045260246000fd5b600080fd5b600080fd5b600080fd5b600080fd5b600080fd5b6000601f19601f8301169050919050565b7f4552433732313a2063616c6c6572206973206e6f7420746f6b656e206f776e6560008201527f72206f7220617070726f76656400000000000000000000000000000000000000602082015250565b7f4552433732313a207472616e7366657220746f206e6f6e20455243373231526560008201527f63656976657220696d706c656d656e7465720000000000000000000000000000602082015250565b7f4f776e61626c653a206e6577206f776e657220697320746865207a65726f206160008201527f6464726573730000000000000000000000000000000000000000000000000000602082015250565b7f4552433732313a207472616e736665722066726f6d20696e636f72726563742060008201527f6f776e6572000000000000000000000000000000000000000000000000000000602082015250565b7f4552433732313a20746f6b656e20616c7265616479206d696e74656400000000600082015250565b7f4552433732313a207472616e7366657220746f20746865207a65726f2061646460008201527f7265737300000000000000000000000000000000000000000000000000000000602082015250565b7f4552433732313a20617070726f766520746f2063616c6c657200000000000000600082015250565b7f4552433732313a2061646472657373207a65726f206973206e6f74206120766160008201527f6c6964206f776e65720000000000000000000000000000000000000000000000602082015250565b7f45524337323155524953746f726167653a2055524920736574206f66206e6f6e60008201527f6578697374656e7420746f6b656e000000000000000000000000000000000000602082015250565b7f4552433732313a206d696e7420746f20746865207a65726f2061646472657373600082015250565b7f4f776e61626c653a2063616c6c6572206973206e6f7420746865206f776e6572600082015250565b7f4552433732313a20696e76616c696420746f6b656e2049440000000000000000600082015250565b7f4552433732313a20617070726f76616c20746f2063757272656e74206f776e6560008201527f7200000000000000000000000000000000000000000000000000000000000000602082015250565b50565b7f4552433732313a20617070726f76652063616c6c6572206973206e6f7420746f60008201527f6b656e206f776e6572206f7220617070726f76656420666f7220616c6c000000602082015250565b60038110613b4357613b426136b5565b5b50565b613b4f81613463565b8114613b5a57600080fd5b50565b613b6681613475565b8114613b7157600080fd5b50565b613b7d8161348b565b8114613b8857600080fd5b50565b613b94816134f8565b8114613b9f57600080fd5b5056fea264697066735822122049102aaece8bd7369031097d7fb93f040f7d70011be6814682226021a236579b64736f6c63430008070033",
  "devdoc": {
    "kind": "dev",
    "methods": {
      "approve(address,uint256)": {
        "details": "See {IERC721-approve}."
      },
      "balanceOf(address)": {
        "details": "See {IERC721-balanceOf}."
      },
      "getApproved(uint256)": {
        "details": "See {IERC721-getApproved}."
      },
      "isApprovedForAll(address,address)": {
        "details": "See {IERC721-isApprovedForAll}."
      },
      "name()": {
        "details": "See {IERC721Metadata-name}."
      },
      "owner()": {
        "details": "Returns the address of the current owner."
      },
      "ownerOf(uint256)": {
        "details": "See {IERC721-ownerOf}."
      },
      "renounceOwnership()": {
        "details": "Leaves the contract without owner. It will not be possible to call `onlyOwner` functions anymore. Can only be called by the current owner. NOTE: Renouncing ownership will leave the contract without an owner, thereby removing any functionality that is only available to the owner."
      },
      "safeTransferFrom(address,address,uint256)": {
        "details": "See {IERC721-safeTransferFrom}."
      },
      "safeTransferFrom(address,address,uint256,bytes)": {
        "details": "See {IERC721-safeTransferFrom}."
      },
      "setApprovalForAll(address,bool)": {
        "details": "See {IERC721-setApprovalForAll}."
      },
      "supportsInterface(bytes4)": {
        "details": "See {IERC165-supportsInterface}."
      },
      "symbol()": {
        "details": "See {IERC721Metadata-symbol}."
      },
      "tokenURI(uint256)": {
        "details": "See {IERC721Metadata-tokenURI}."
      },
      "transferFrom(address,address,uint256)": {
        "details": "See {IERC721-transferFrom}."
      },
      "transferOwnership(address)": {
        "details": "Transfers ownership of the contract to a new account (`newOwner`). Can only be called by the current owner."
      }
    },
    "version": 1
  },
  "userdoc": {
    "kind": "user",
    "methods": {},
    "version": 1
  },
  "storageLayout": {
    "storage": [
      {
        "astId": 292,
        "contract": "contracts/RandomIPFSNFT.sol:RandomIPFSNFT",
        "label": "_name",
        "offset": 0,
        "slot": "0",
        "type": "t_string_storage"
      },
      {
        "astId": 294,
        "contract": "contracts/RandomIPFSNFT.sol:RandomIPFSNFT",
        "label": "_symbol",
        "offset": 0,
        "slot": "1",
        "type": "t_string_storage"
      },
      {
        "astId": 298,
        "contract": "contracts/RandomIPFSNFT.sol:RandomIPFSNFT",
        "label": "_owners",
        "offset": 0,
        "slot": "2",
        "type": "t_mapping(t_uint256,t_address)"
      },
      {
        "astId": 302,
        "contract": "contracts/RandomIPFSNFT.sol:RandomIPFSNFT",
        "label": "_balances",
        "offset": 0,
        "slot": "3",
        "type": "t_mapping(t_address,t_uint256)"
      },
      {
        "astId": 306,
        "contract": "contracts/RandomIPFSNFT.sol:RandomIPFSNFT",
        "label": "_tokenApprovals",
        "offset": 0,
        "slot": "4",
        "type": "t_mapping(t_uint256,t_address)"
      },
      {
        "astId": 312,
        "contract": "contracts/RandomIPFSNFT.sol:RandomIPFSNFT",
        "label": "_operatorApprovals",
        "offset": 0,
        "slot": "5",
        "type": "t_mapping(t_address,t_mapping(t_address,t_bool))"
      },
      {
        "astId": 1358,
        "contract": "contracts/RandomIPFSNFT.sol:RandomIPFSNFT",
        "label": "_tokenURIs",
        "offset": 0,
        "slot": "6",
        "type": "t_mapping(t_uint256,t_string_storage)"
      },
      {
        "astId": 161,
        "contract": "contracts/RandomIPFSNFT.sol:RandomIPFSNFT",
        "label": "_owner",
        "offset": 0,
        "slot": "7",
        "type": "t_address"
      },
      {
        "astId": 2962,
        "contract": "contracts/RandomIPFSNFT.sol:RandomIPFSNFT",
        "label": "s_requestIdToSender",
        "offset": 0,
        "slot": "8",
        "type": "t_mapping(t_uint256,t_address)"
      },
      {
        "astId": 2964,
        "contract": "contracts/RandomIPFSNFT.sol:RandomIPFSNFT",
        "label": "s_tokenCounter",
        "offset": 0,
        "slot": "9",
        "type": "t_uint256"
      },
      {
        "astId": 2974,
        "contract": "contracts/RandomIPFSNFT.sol:RandomIPFSNFT",
        "label": "s_dogTokenUris",
        "offset": 0,
        "slot": "10",
        "type": "t_array(t_string_storage)dyn_storage"
      }
    ],
    "types": {
      "t_address": {
        "encoding": "inplace",
        "label": "address",
        "numberOfBytes": "20"
      },
      "t_array(t_string_storage)dyn_storage": {
        "base": "t_string_storage",
        "encoding": "dynamic_array",
        "label": "string[]",
        "numberOfBytes": "32"
      },
      "t_bool": {
        "encoding": "inplace",
        "label": "bool",
        "numberOfBytes": "1"
      },
      "t_mapping(t_address,t_bool)": {
        "encoding": "mapping",
        "key": "t_address",
        "label": "mapping(address => bool)",
        "numberOfBytes": "32",
        "value": "t_bool"
      },
      "t_mapping(t_address,t_mapping(t_address,t_bool))": {
        "encoding": "mapping",
        "key": "t_address",
        "label": "mapping(address => mapping(address => bool))",
        "numberOfBytes": "32",
        "value": "t_mapping(t_address,t_bool)"
      },
      "t_mapping(t_address,t_uint256)": {
        "encoding": "mapping",
        "key": "t_address",
        "label": "mapping(address => uint256)",
        "numberOfBytes": "32",
        "value": "t_uint256"
      },
      "t_mapping(t_uint256,t_address)": {
        "encoding": "mapping",
        "key": "t_uint256",
        "label": "mapping(uint256 => address)",
        "numberOfBytes": "32",
        "value": "t_address"
      },
      "t_mapping(t_uint256,t_string_storage)": {
        "encoding": "mapping",
        "key": "t_uint256",
        "label": "mapping(uint256 => string)",
        "numberOfBytes": "32",
        "value": "t_string_storage"
      },
      "t_string_storage": {
        "encoding": "bytes",
        "label": "string",
        "numberOfBytes": "32"
      },
      "t_uint256": {
        "encoding": "inplace",
        "label": "uint256",
        "numberOfBytes": "32"
      }
    }
  }
}