{
  "address": "0x5FC8d32690cc91D4c39d9d3abcBD16989F875707",
  "abi": [
    {
      "inputs": [
        {
          "internalType": "address",
          "name": "vrfCoordinatorV2",
          "type": "address"
        },
        {
          "internalType": "uint64",
          "name": "subscriptionId",
          "type": "uint64"
        },
        {
          "internalType": "bytes32",
          "name": "gasLane",
          "type": "bytes32"
        },
        {
          "internalType": "uint32",
          "name": "callbackGasLimit",
          "type": "uint32"
        },
        {
          "internalType": "string[3]",
          "name": "dogTokenUris",
          "type": "string[3]"
        },
        {
          "internalType": "uint256",
          "name": "mintFee",
          "type": "uint256"
        }
      ],
      "stateMutability": "nonpayable",
      "type": "constructor"
    },
    {
      "inputs": [
        {
          "internalType": "address",
          "name": "have",
          "type": "address"
        },
        {
          "internalType": "address",
          "name": "want",
          "type": "address"
        }
      ],
      "name": "OnlyCoordinatorCanFulfill",
      "type": "error"
    },
    {
      "inputs": [],
      "name": "RandomIPFSNFT__AlreadyInitialized",
      "type": "error"
    },
    {
      "inputs": [],
      "name": "RandomIPFSNFT__NeedMoreETHSent",
      "type": "error"
    },
    {
      "inputs": [],
      "name": "RandomIPFSNFT__RangeOutOfBounds",
      "type": "error"
    },
    {
      "inputs": [],
      "name": "RandomIPFSNFT__TransferFailed",
      "type": "error"
    },
    {
      "anonymous": false,
      "inputs": [
        {
          "indexed": true,
          "internalType": "address",
          "name": "owner",
          "type": "address"
        },
        {
          "indexed": true,
          "internalType": "address",
          "name": "approved",
          "type": "address"
        },
        {
          "indexed": true,
          "internalType": "uint256",
          "name": "tokenId",
          "type": "uint256"
        }
      ],
      "name": "Approval",
      "type": "event"
    },
    {
      "anonymous": false,
      "inputs": [
        {
          "indexed": true,
          "internalType": "address",
          "name": "owner",
          "type": "address"
        },
        {
          "indexed": true,
          "internalType": "address",
          "name": "operator",
          "type": "address"
        },
        {
          "indexed": false,
          "internalType": "bool",
          "name": "approved",
          "type": "bool"
        }
      ],
      "name": "ApprovalForAll",
      "type": "event"
    },
    {
      "anonymous": false,
      "inputs": [
        {
          "indexed": false,
          "internalType": "enum RandomIPFSNFT.Breed",
          "name": "dogBreed",
          "type": "uint8"
        },
        {
          "indexed": false,
          "internalType": "address",
          "name": "minter",
          "type": "address"
        }
      ],
      "name": "NftMinted",
      "type": "event"
    },
    {
      "anonymous": false,
      "inputs": [
        {
          "indexed": true,
          "internalType": "uint256",
          "name": "requestId",
          "type": "uint256"
        },
        {
          "indexed": false,
          "internalType": "address",
          "name": "requester",
          "type": "address"
        }
      ],
      "name": "NftRequested",
      "type": "event"
    },
    {
      "anonymous": false,
      "inputs": [
        {
          "indexed": true,
          "internalType": "address",
          "name": "previousOwner",
          "type": "address"
        },
        {
          "indexed": true,
          "internalType": "address",
          "name": "newOwner",
          "type": "address"
        }
      ],
      "name": "OwnershipTransferred",
      "type": "event"
    },
    {
      "anonymous": false,
      "inputs": [
        {
          "indexed": true,
          "internalType": "address",
          "name": "from",
          "type": "address"
        },
        {
          "indexed": true,
          "internalType": "address",
          "name": "to",
          "type": "address"
        },
        {
          "indexed": true,
          "internalType": "uint256",
          "name": "tokenId",
          "type": "uint256"
        }
      ],
      "name": "Transfer",
      "type": "event"
    },
    {
      "inputs": [
        {
          "internalType": "address",
          "name": "to",
          "type": "address"
        },
        {
          "internalType": "uint256",
          "name": "tokenId",
          "type": "uint256"
        }
      ],
      "name": "approve",
      "outputs": [],
      "stateMutability": "nonpayable",
      "type": "function"
    },
    {
      "inputs": [
        {
          "internalType": "address",
          "name": "owner",
          "type": "address"
        }
      ],
      "name": "balanceOf",
      "outputs": [
        {
          "internalType": "uint256",
          "name": "",
          "type": "uint256"
        }
      ],
      "stateMutability": "view",
      "type": "function"
    },
    {
      "inputs": [
        {
          "internalType": "uint256",
          "name": "tokenId",
          "type": "uint256"
        }
      ],
      "name": "getApproved",
      "outputs": [
        {
          "internalType": "address",
          "name": "",
          "type": "address"
        }
      ],
      "stateMutability": "view",
      "type": "function"
    },
    {
      "inputs": [
        {
          "internalType": "uint256",
          "name": "moddedRng",
          "type": "uint256"
        }
      ],
      "name": "getBreedFromModdedRng",
      "outputs": [
        {
          "internalType": "enum RandomIPFSNFT.Breed",
          "name": "",
          "type": "uint8"
        }
      ],
      "stateMutability": "pure",
      "type": "function"
    },
    {
      "inputs": [],
      "name": "getChanceArray",
      "outputs": [
        {
          "internalType": "uint256[3]",
          "name": "",
          "type": "uint256[3]"
        }
      ],
      "stateMutability": "pure",
      "type": "function"
    },
    {
      "inputs": [],
      "name": "getInitialized",
      "outputs": [
        {
          "internalType": "bool",
          "name": "",
          "type": "bool"
        }
      ],
      "stateMutability": "view",
      "type": "function"
    },
    {
      "inputs": [],
      "name": "getMintFee",
      "outputs": [
        {
          "internalType": "uint256",
          "name": "",
          "type": "uint256"
        }
      ],
      "stateMutability": "view",
      "type": "function"
    },
    {
      "inputs": [],
      "name": "getTokenCounter",
      "outputs": [
        {
          "internalType": "uint256",
          "name": "",
          "type": "uint256"
        }
      ],
      "stateMutability": "view",
      "type": "function"
    },
    {
      "inputs": [
        {
          "internalType": "uint256",
          "name": "index",
          "type": "uint256"
        }
      ],
      "name": "getTokenUri",
      "outputs": [
        {
          "internalType": "string",
          "name": "",
          "type": "string"
        }
      ],
      "stateMutability": "view",
      "type": "function"
    },
    {
      "inputs": [
        {
          "internalType": "address",
          "name": "owner",
          "type": "address"
        },
        {
          "internalType": "address",
          "name": "operator",
          "type": "address"
        }
      ],
      "name": "isApprovedForAll",
      "outputs": [
        {
          "internalType": "bool",
          "name": "",
          "type": "bool"
        }
      ],
      "stateMutability": "view",
      "type": "function"
    },
    {
      "inputs": [],
      "name": "name",
      "outputs": [
        {
          "internalType": "string",
          "name": "",
          "type": "string"
        }
      ],
      "stateMutability": "view",
      "type": "function"
    },
    {
      "inputs": [],
      "name": "owner",
      "outputs": [
        {
          "internalType": "address",
          "name": "",
          "type": "address"
        }
      ],
      "stateMutability": "view",
      "type": "function"
    },
    {
      "inputs": [
        {
          "internalType": "uint256",
          "name": "tokenId",
          "type": "uint256"
        }
      ],
      "name": "ownerOf",
      "outputs": [
        {
          "internalType": "address",
          "name": "",
          "type": "address"
        }
      ],
      "stateMutability": "view",
      "type": "function"
    },
    {
      "inputs": [
        {
          "internalType": "uint256",
          "name": "requestId",
          "type": "uint256"
        },
        {
          "internalType": "uint256[]",
          "name": "randomWords",
          "type": "uint256[]"
        }
      ],
      "name": "rawFulfillRandomWords",
      "outputs": [],
      "stateMutability": "nonpayable",
      "type": "function"
    },
    {
      "inputs": [],
      "name": "renounceOwnership",
      "outputs": [],
      "stateMutability": "nonpayable",
      "type": "function"
    },
    {
      "inputs": [],
      "name": "requestNft",
      "outputs": [
        {
          "internalType": "uint256",
          "name": "requestId",
          "type": "uint256"
        }
      ],
      "stateMutability": "payable",
      "type": "function"
    },
    {
      "inputs": [
        {
          "internalType": "uint256",
          "name": "",
          "type": "uint256"
        }
      ],
      "name": "s_requestIdToSender",
      "outputs": [
        {
          "internalType": "address",
          "name": "",
          "type": "address"
        }
      ],
      "stateMutability": "view",
      "type": "function"
    },
    {
      "inputs": [],
      "name": "s_tokenCounter",
      "outputs": [
        {
          "internalType": "uint256",
          "name": "",
          "type": "uint256"
        }
      ],
      "stateMutability": "view",
      "type": "function"
    },
    {
      "inputs": [
        {
          "internalType": "address",
          "name": "from",
          "type": "address"
        },
        {
          "internalType": "address",
          "name": "to",
          "type": "address"
        },
        {
          "internalType": "uint256",
          "name": "tokenId",
          "type": "uint256"
        }
      ],
      "name": "safeTransferFrom",
      "outputs": [],
      "stateMutability": "nonpayable",
      "type": "function"
    },
    {
      "inputs": [
        {
          "internalType": "address",
          "name": "from",
          "type": "address"
        },
        {
          "internalType": "address",
          "name": "to",
          "type": "address"
        },
        {
          "internalType": "uint256",
          "name": "tokenId",
          "type": "uint256"
        },
        {
          "internalType": "bytes",
          "name": "data",
          "type": "bytes"
        }
      ],
      "name": "safeTransferFrom",
      "outputs": [],
      "stateMutability": "nonpayable",
      "type": "function"
    },
    {
      "inputs": [
        {
          "internalType": "address",
          "name": "operator",
          "type": "address"
        },
        {
          "internalType": "bool",
          "name": "approved",
          "type": "bool"
        }
      ],
      "name": "setApprovalForAll",
      "outputs": [],
      "stateMutability": "nonpayable",
      "type": "function"
    },
    {
      "inputs": [
        {
          "internalType": "bytes4",
          "name": "interfaceId",
          "type": "bytes4"
        }
      ],
      "name": "supportsInterface",
      "outputs": [
        {
          "internalType": "bool",
          "name": "",
          "type": "bool"
        }
      ],
      "stateMutability": "view",
      "type": "function"
    },
    {
      "inputs": [],
      "name": "symbol",
      "outputs": [
        {
          "internalType": "string",
          "name": "",
          "type": "string"
        }
      ],
      "stateMutability": "view",
      "type": "function"
    },
    {
      "inputs": [
        {
          "internalType": "uint256",
          "name": "tokenId",
          "type": "uint256"
        }
      ],
      "name": "tokenURI",
      "outputs": [
        {
          "internalType": "string",
          "name": "",
          "type": "string"
        }
      ],
      "stateMutability": "view",
      "type": "function"
    },
    {
      "inputs": [
        {
          "internalType": "address",
          "name": "from",
          "type": "address"
        },
        {
          "internalType": "address",
          "name": "to",
          "type": "address"
        },
        {
          "internalType": "uint256",
          "name": "tokenId",
          "type": "uint256"
        }
      ],
      "name": "transferFrom",
      "outputs": [],
      "stateMutability": "nonpayable",
      "type": "function"
    },
    {
      "inputs": [
        {
          "internalType": "address",
          "name": "newOwner",
          "type": "address"
        }
      ],
      "name": "transferOwnership",
      "outputs": [],
      "stateMutability": "nonpayable",
      "type": "function"
    },
    {
      "inputs": [],
      "name": "withdraw",
      "outputs": [],
      "stateMutability": "nonpayable",
      "type": "function"
    }
  ],
  "transactionHash": "0x798d18e0e6b486fcfae77f172db596226473106433c4af6fa791be63b6cd6cc4",
  "args": [
    "0x5FbDB2315678afecb367f032d93F642f64180aa3",
    "1",
    "0x79d3d8832d904592c0bf9818b621522c988bb8b0c05cdc3b15aea1b6e8db0c15",
    "500000",
    [
      "ipfs://QmaVkBn2tKmjbhphU7eyztbvSQU5EXDdqRyXZtRhSGgJGo",
      "ipfs://QmYQC5aGZu2PTH8XzbJrbDnvhj3gVs7ya33H9mqUNvST3d",
      "ipfs://QmZYmH5iDbD6v3U2ixoVAjioSzvWJszDzYdbeCLquGSpVm"
    ],
    "10000000000000000"
  ],
  "numDeployments": 1,
  "solcInputHash": "baa14f78ddecd122abad5df776411039",
  "bytecode": "0x6101406040523480156200001257600080fd5b506040516200467a3803806200467a833981810160405281019062000038919062000662565b6040518060400160405280600f81526020017f52616e646f6d2049504653204e465400000000000000000000000000000000008152506040518060400160405280600381526020017f52494e0000000000000000000000000000000000000000000000000000000000815250878073ffffffffffffffffffffffffffffffffffffffff1660808173ffffffffffffffffffffffffffffffffffffffff1660601b81525050508160009080519060200190620000f592919062000329565b5080600190805190602001906200010e92919062000329565b5050506200013162000125620001e160201b60201c565b620001e960201b60201c565b8573ffffffffffffffffffffffffffffffffffffffff1660a08173ffffffffffffffffffffffffffffffffffffffff1660601b815250508467ffffffffffffffff1660c08167ffffffffffffffff1660c01b815250508360e081815250508263ffffffff166101008163ffffffff1660e01b8152505081600a906003620001ba929190620003ba565b50620001cc82620002af60201b60201c565b806101208181525050505050505050620009bd565b600033905090565b6000600760009054906101000a900473ffffffffffffffffffffffffffffffffffffffff16905081600760006101000a81548173ffffffffffffffffffffffffffffffffffffffff021916908373ffffffffffffffffffffffffffffffffffffffff1602179055508173ffffffffffffffffffffffffffffffffffffffff168173ffffffffffffffffffffffffffffffffffffffff167f8be0079c531659141344cd1fd0a4f28419497f9722a3daafe3b4186f6b6457e060405160405180910390a35050565b600b60009054906101000a900460ff1615620002f7576040517fa6ed0f8b00000000000000000000000000000000000000000000000000000000815260040160405180910390fd5b80600a9060036200030a929190620003ba565b506001600b60006101000a81548160ff02191690831515021790555050565b828054620003379062000847565b90600052602060002090601f0160209004810192826200035b5760008555620003a7565b82601f106200037657805160ff1916838001178555620003a7565b82800160010185558215620003a7579182015b82811115620003a657825182559160200191906001019062000389565b5b509050620003b6919062000421565b5090565b8280548282559060005260206000209081019282156200040e579160200282015b828111156200040d578251829080519060200190620003fc92919062000329565b5091602001919060010190620003db565b5b5090506200041d919062000440565b5090565b5b808211156200043c57600081600090555060010162000422565b5090565b5b808211156200046457600081816200045a919062000468565b5060010162000441565b5090565b508054620004769062000847565b6000825580601f106200048a5750620004ab565b601f016020900490600052602060002090810190620004aa919062000421565b5b50565b6000620004c5620004bf8462000746565b6200071d565b90508082856020860282011115620004e257620004e162000916565b5b60005b858110156200053757815167ffffffffffffffff8111156200050c576200050b62000911565b5b8086016200051b8982620005ea565b85526020850194506020840193505050600181019050620004e5565b5050509392505050565b60006200055862000552846200076f565b6200071d565b9050828152602081018484840111156200057757620005766200091b565b5b6200058484828562000811565b509392505050565b6000815190506200059d816200093b565b92915050565b600082601f830112620005bb57620005ba62000911565b5b6003620005ca848285620004ae565b91505092915050565b600081519050620005e48162000955565b92915050565b600082601f83011262000602576200060162000911565b5b81516200061484826020860162000541565b91505092915050565b6000815190506200062e816200096f565b92915050565b600081519050620006458162000989565b92915050565b6000815190506200065c81620009a3565b92915050565b60008060008060008060c0878903121562000682576200068162000925565b5b60006200069289828a016200058c565b9650506020620006a589828a016200064b565b9550506040620006b889828a01620005d3565b9450506060620006cb89828a0162000634565b935050608087015167ffffffffffffffff811115620006ef57620006ee62000920565b5b620006fd89828a01620005a3565b92505060a06200071089828a016200061d565b9150509295509295509295565b6000620007296200073c565b90506200073782826200087d565b919050565b6000604051905090565b600067ffffffffffffffff821115620007645762000763620008e2565b5b602082029050919050565b600067ffffffffffffffff8211156200078d576200078c620008e2565b5b62000798826200092a565b9050602081019050919050565b6000620007b282620007c3565b9050919050565b6000819050919050565b600073ffffffffffffffffffffffffffffffffffffffff82169050919050565b6000819050919050565b600063ffffffff82169050919050565b600067ffffffffffffffff82169050919050565b60005b838110156200083157808201518184015260208101905062000814565b8381111562000841576000848401525b50505050565b600060028204905060018216806200086057607f821691505b60208210811415620008775762000876620008b3565b5b50919050565b62000888826200092a565b810181811067ffffffffffffffff82111715620008aa57620008a9620008e2565b5b80604052505050565b7f4e487b7100000000000000000000000000000000000000000000000000000000600052602260045260246000fd5b7f4e487b7100000000000000000000000000000000000000000000000000000000600052604160045260246000fd5b600080fd5b600080fd5b600080fd5b600080fd5b600080fd5b6000601f19601f8301169050919050565b6200094681620007a5565b81146200095257600080fd5b50565b6200096081620007b9565b81146200096c57600080fd5b50565b6200097a81620007e3565b81146200098657600080fd5b50565b6200099481620007ed565b8114620009a057600080fd5b50565b620009ae81620007fd565b8114620009ba57600080fd5b50565b60805160601c60a05160601c60c05160c01c60e0516101005160e01c61012051613c5362000a2760003960008181610ce10152610f950152600061106f0152600061102b0152600061104c01526000610fef01526000818161096301526109b70152613c536000f3fe60806040526004361061019c5760003560e01c8063715018a6116100ec578063a51cccf31161008a578063c87b56dd11610064578063c87b56dd146105bb578063e985e9c5146105f8578063ee89dab414610635578063f2fde38b146106605761019c565b8063a51cccf314610537578063aa15249114610574578063b88d4fde146105925761019c565b80638da5cb5b116100c65780638da5cb5b1461047b57806395d89b41146104a6578063a22cb465146104d1578063a36f573b146104fa5761019c565b8063715018a6146103fc5780637a5caab3146104135780638ad913451461043e5761019c565b806323b872dd116101595780635dacf5f4116101335780635dacf5f41461032c5780636352211e146103575780636e02007d1461039457806370a08231146103bf5761019c565b806323b872dd146102c35780633ccfd60b146102ec57806342842e0e146103035761019c565b806301ffc9a7146101a157806306fdde03146101de578063081812fc14610209578063095ea7b3146102465780630b21a83b1461026f5780631fe543e31461029a575b600080fd5b3480156101ad57600080fd5b506101c860048036038101906101c39190612b0e565b610689565b6040516101d591906130a8565b60405180910390f35b3480156101ea57600080fd5b506101f361076b565b604051610200919061315a565b60405180910390f35b34801561021557600080fd5b50610230600480360381019061022b9190612b68565b6107fd565b60405161023d9190612ffd565b60405180910390f35b34801561025257600080fd5b5061026d60048036038101906102689190612ace565b610843565b005b34801561027b57600080fd5b5061028461095b565b604051610291919061333c565b60405180910390f35b3480156102a657600080fd5b506102c160048036038101906102bc9190612bc2565b610961565b005b3480156102cf57600080fd5b506102ea60048036038101906102e591906129b8565b610a21565b005b3480156102f857600080fd5b50610301610a81565b005b34801561030f57600080fd5b5061032a600480360381019061032591906129b8565b610b35565b005b34801561033857600080fd5b50610341610b55565b60405161034e919061308d565b60405180910390f35b34801561036357600080fd5b5061037e60048036038101906103799190612b68565b610b80565b60405161038b9190612ffd565b60405180910390f35b3480156103a057600080fd5b506103a9610c07565b6040516103b6919061333c565b60405180910390f35b3480156103cb57600080fd5b506103e660048036038101906103e1919061294b565b610c11565b6040516103f3919061333c565b60405180910390f35b34801561040857600080fd5b50610411610cc9565b005b34801561041f57600080fd5b50610428610cdd565b604051610435919061333c565b60405180910390f35b34801561044a57600080fd5b5061046560048036038101906104609190612b68565b610d05565b604051610472919061315a565b60405180910390f35b34801561048757600080fd5b50610490610db5565b60405161049d9190612ffd565b60405180910390f35b3480156104b257600080fd5b506104bb610ddf565b6040516104c8919061315a565b60405180910390f35b3480156104dd57600080fd5b506104f860048036038101906104f39190612a8e565b610e71565b005b34801561050657600080fd5b50610521600480360381019061051c9190612b68565b610e87565b60405161052e9190612ffd565b60405180910390f35b34801561054357600080fd5b5061055e60048036038101906105599190612b68565b610eba565b60405161056b9190613116565b60405180910390f35b61057c610f91565b604051610589919061333c565b60405180910390f35b34801561059e57600080fd5b506105b960048036038101906105b49190612a0b565b611191565b005b3480156105c757600080fd5b506105e260048036038101906105dd9190612b68565b6111f3565b6040516105ef919061315a565b60405180910390f35b34801561060457600080fd5b5061061f600480360381019061061a9190612978565b611306565b60405161062c91906130a8565b60405180910390f35b34801561064157600080fd5b5061064a61139a565b60405161065791906130a8565b60405180910390f35b34801561066c57600080fd5b506106876004803603810190610682919061294b565b6113b1565b005b60007f80ac58cd000000000000000000000000000000000000000000000000000000007bffffffffffffffffffffffffffffffffffffffffffffffffffffffff1916827bffffffffffffffffffffffffffffffffffffffffffffffffffffffff1916148061075457507f5b5e139f000000000000000000000000000000000000000000000000000000007bffffffffffffffffffffffffffffffffffffffffffffffffffffffff1916827bffffffffffffffffffffffffffffffffffffffffffffffffffffffff1916145b80610764575061076382611435565b5b9050919050565b60606000805461077a906135f5565b80601f01602080910402602001604051908101604052809291908181526020018280546107a6906135f5565b80156107f35780601f106107c8576101008083540402835291602001916107f3565b820191906000526020600020905b8154815290600101906020018083116107d657829003601f168201915b5050505050905090565b60006108088261149f565b6004600083815260200190815260200160002060009054906101000a900473ffffffffffffffffffffffffffffffffffffffff169050919050565b600061084e82610b80565b90508073ffffffffffffffffffffffffffffffffffffffff168373ffffffffffffffffffffffffffffffffffffffff1614156108bf576040517f08c379a00000000000000000000000000000000000000000000000000000000081526004016108b6906132fc565b60405180910390fd5b8073ffffffffffffffffffffffffffffffffffffffff166108de6114ea565b73ffffffffffffffffffffffffffffffffffffffff16148061090d575061090c816109076114ea565b611306565b5b61094c576040517f08c379a00000000000000000000000000000000000000000000000000000000081526004016109439061331c565b60405180910390fd5b61095683836114f2565b505050565b60095481565b7f000000000000000000000000000000000000000000000000000000000000000073ffffffffffffffffffffffffffffffffffffffff163373ffffffffffffffffffffffffffffffffffffffff1614610a1357337f00000000000000000000000000000000000000000000000000000000000000006040517f1cf993f4000000000000000000000000000000000000000000000000000000008152600401610a0a929190613018565b60405180910390fd5b610a1d82826115ab565b5050565b610a32610a2c6114ea565b82611745565b610a71576040517f08c379a0000000000000000000000000000000000000000000000000000000008152600401610a689061317c565b60405180910390fd5b610a7c8383836117da565b505050565b610a89611ad4565b600047905060003373ffffffffffffffffffffffffffffffffffffffff1682604051610ab490612fe8565b60006040518083038185875af1925050503d8060008114610af1576040519150601f19603f3d011682016040523d82523d6000602084013e610af6565b606091505b5050905080610b31576040517fff2f968b00000000000000000000000000000000000000000000000000000000815260040160405180910390fd5b5050565b610b5083838360405180602001604052806000815250611191565b505050565b610b5d6126fa565b6040518060600160405280600a8152602001601e81526020016064815250905090565b600080610b8c83611b52565b9050600073ffffffffffffffffffffffffffffffffffffffff168173ffffffffffffffffffffffffffffffffffffffff161415610bfe576040517f08c379a0000000000000000000000000000000000000000000000000000000008152600401610bf5906132dc565b60405180910390fd5b80915050919050565b6000600954905090565b60008073ffffffffffffffffffffffffffffffffffffffff168273ffffffffffffffffffffffffffffffffffffffff161415610c82576040517f08c379a0000000000000000000000000000000000000000000000000000000008152600401610c799061325c565b60405180910390fd5b600360008373ffffffffffffffffffffffffffffffffffffffff1673ffffffffffffffffffffffffffffffffffffffff168152602001908152602001600020549050919050565b610cd1611ad4565b610cdb6000611b8f565b565b60007f0000000000000000000000000000000000000000000000000000000000000000905090565b6060600a8281548110610d1b57610d1a61378e565b5b906000526020600020018054610d30906135f5565b80601f0160208091040260200160405190810160405280929190818152602001828054610d5c906135f5565b8015610da95780601f10610d7e57610100808354040283529160200191610da9565b820191906000526020600020905b815481529060010190602001808311610d8c57829003601f168201915b50505050509050919050565b6000600760009054906101000a900473ffffffffffffffffffffffffffffffffffffffff16905090565b606060018054610dee906135f5565b80601f0160208091040260200160405190810160405280929190818152602001828054610e1a906135f5565b8015610e675780601f10610e3c57610100808354040283529160200191610e67565b820191906000526020600020905b815481529060010190602001808311610e4a57829003601f168201915b5050505050905090565b610e83610e7c6114ea565b8383611c55565b5050565b60086020528060005260406000206000915054906101000a900473ffffffffffffffffffffffffffffffffffffffff1681565b600080600090506000610ecb610b55565b905060005b6003811015610f5957828510158015610eff5750818160038110610ef757610ef661378e565b5b602002015185105b15610f2157806002811115610f1757610f16613730565b5b9350505050610f8c565b818160038110610f3457610f3361378e565b5b602002015183610f449190613454565b92508080610f5190613658565b915050610ed0565b506040517f4b145a0700000000000000000000000000000000000000000000000000000000815260040160405180910390fd5b919050565b60007f0000000000000000000000000000000000000000000000000000000000000000341015610fed576040517f5a4ade7b00000000000000000000000000000000000000000000000000000000815260040160405180910390fd5b7f000000000000000000000000000000000000000000000000000000000000000073ffffffffffffffffffffffffffffffffffffffff16635d3b1d307f00000000000000000000000000000000000000000000000000000000000000007f000000000000000000000000000000000000000000000000000000000000000060037f000000000000000000000000000000000000000000000000000000000000000060016040518663ffffffff1660e01b81526004016110b09594939291906130c3565b602060405180830381600087803b1580156110ca57600080fd5b505af11580156110de573d6000803e3d6000fd5b505050506040513d601f19601f820116820180604052508101906111029190612b95565b9050336008600083815260200190815260200160002060006101000a81548173ffffffffffffffffffffffffffffffffffffffff021916908373ffffffffffffffffffffffffffffffffffffffff160217905550807ff873236e6cc0ecc5be1a9a35c95ee5b8d1ac4cc7bfef0cc5060391d6cc98e26b336040516111869190612ffd565b60405180910390a290565b6111a261119c6114ea565b83611745565b6111e1576040517f08c379a00000000000000000000000000000000000000000000000000000000081526004016111d89061317c565b60405180910390fd5b6111ed84848484611dc2565b50505050565b60606111fe8261149f565b600060066000848152602001908152602001600020805461121e906135f5565b80601f016020809104026020016040519081016040528092919081815260200182805461124a906135f5565b80156112975780601f1061126c57610100808354040283529160200191611297565b820191906000526020600020905b81548152906001019060200180831161127a57829003601f168201915b5050505050905060006112a8611e1e565b90506000815114156112be578192505050611301565b6000825111156112f35780826040516020016112db929190612fc4565b60405160208183030381529060405292505050611301565b6112fc84611e35565b925050505b919050565b6000600560008473ffffffffffffffffffffffffffffffffffffffff1673ffffffffffffffffffffffffffffffffffffffff16815260200190815260200160002060008373ffffffffffffffffffffffffffffffffffffffff1673ffffffffffffffffffffffffffffffffffffffff16815260200190815260200160002060009054906101000a900460ff16905092915050565b6000600b60009054906101000a900460ff16905090565b6113b9611ad4565b600073ffffffffffffffffffffffffffffffffffffffff168173ffffffffffffffffffffffffffffffffffffffff161415611429576040517f08c379a0000000000000000000000000000000000000000000000000000000008152600401611420906131bc565b60405180910390fd5b61143281611b8f565b50565b60007f01ffc9a7000000000000000000000000000000000000000000000000000000007bffffffffffffffffffffffffffffffffffffffffffffffffffffffff1916827bffffffffffffffffffffffffffffffffffffffffffffffffffffffff1916149050919050565b6114a881611e9d565b6114e7576040517f08c379a00000000000000000000000000000000000000000000000000000000081526004016114de906132dc565b60405180910390fd5b50565b600033905090565b816004600083815260200190815260200160002060006101000a81548173ffffffffffffffffffffffffffffffffffffffff021916908373ffffffffffffffffffffffffffffffffffffffff160217905550808273ffffffffffffffffffffffffffffffffffffffff1661156583610b80565b73ffffffffffffffffffffffffffffffffffffffff167f8c5be1e5ebec7d5bd14f71427d1e84f3dd0314c0f7b2291e5b200ac8c7c3b92560405160405180910390a45050565b60006008600084815260200190815260200160002060009054906101000a900473ffffffffffffffffffffffffffffffffffffffff1690506000600954905060006064846000815181106116025761160161378e565b5b602002602001015161161491906136a1565b9050600061162182610eba565b905060016009546116329190613454565b6009819055506116428484611ede565b61170483600a83600281111561165b5761165a613730565b5b8154811061166c5761166b61378e565b5b906000526020600020018054611681906135f5565b80601f01602080910402602001604051908101604052809291908181526020018280546116ad906135f5565b80156116fa5780601f106116cf576101008083540402835291602001916116fa565b820191906000526020600020905b8154815290600101906020018083116116dd57829003601f168201915b5050505050611efc565b7f8a269f26b688e110e9cbd887d163dab35cae678fa353a0292de532c0cac1ecdc8185604051611735929190613131565b60405180910390a1505050505050565b60008061175183610b80565b90508073ffffffffffffffffffffffffffffffffffffffff168473ffffffffffffffffffffffffffffffffffffffff16148061179357506117928185611306565b5b806117d157508373ffffffffffffffffffffffffffffffffffffffff166117b9846107fd565b73ffffffffffffffffffffffffffffffffffffffff16145b91505092915050565b8273ffffffffffffffffffffffffffffffffffffffff166117fa82610b80565b73ffffffffffffffffffffffffffffffffffffffff1614611850576040517f08c379a0000000000000000000000000000000000000000000000000000000008152600401611847906131dc565b60405180910390fd5b600073ffffffffffffffffffffffffffffffffffffffff168273ffffffffffffffffffffffffffffffffffffffff1614156118c0576040517f08c379a00000000000000000000000000000000000000000000000000000000081526004016118b79061321c565b60405180910390fd5b6118cd8383836001611f70565b8273ffffffffffffffffffffffffffffffffffffffff166118ed82610b80565b73ffffffffffffffffffffffffffffffffffffffff1614611943576040517f08c379a000000000000000000000000000000000000000000000000000000000815260040161193a906131dc565b60405180910390fd5b6004600082815260200190815260200160002060006101000a81549073ffffffffffffffffffffffffffffffffffffffff02191690556001600360008573ffffffffffffffffffffffffffffffffffffffff1673ffffffffffffffffffffffffffffffffffffffff168152602001908152602001600020600082825403925050819055506001600360008473ffffffffffffffffffffffffffffffffffffffff1673ffffffffffffffffffffffffffffffffffffffff16815260200190815260200160002060008282540192505081905550816002600083815260200190815260200160002060006101000a81548173ffffffffffffffffffffffffffffffffffffffff021916908373ffffffffffffffffffffffffffffffffffffffff160217905550808273ffffffffffffffffffffffffffffffffffffffff168473ffffffffffffffffffffffffffffffffffffffff167fddf252ad1be2c89b69c2b068fc378daa952ba7f163c4a11628f55a4df523b3ef60405160405180910390a4611acf8383836001612096565b505050565b611adc6114ea565b73ffffffffffffffffffffffffffffffffffffffff16611afa610db5565b73ffffffffffffffffffffffffffffffffffffffff1614611b50576040517f08c379a0000000000000000000000000000000000000000000000000000000008152600401611b47906132bc565b60405180910390fd5b565b60006002600083815260200190815260200160002060009054906101000a900473ffffffffffffffffffffffffffffffffffffffff169050919050565b6000600760009054906101000a900473ffffffffffffffffffffffffffffffffffffffff16905081600760006101000a81548173ffffffffffffffffffffffffffffffffffffffff021916908373ffffffffffffffffffffffffffffffffffffffff1602179055508173ffffffffffffffffffffffffffffffffffffffff168173ffffffffffffffffffffffffffffffffffffffff167f8be0079c531659141344cd1fd0a4f28419497f9722a3daafe3b4186f6b6457e060405160405180910390a35050565b8173ffffffffffffffffffffffffffffffffffffffff168373ffffffffffffffffffffffffffffffffffffffff161415611cc4576040517f08c379a0000000000000000000000000000000000000000000000000000000008152600401611cbb9061323c565b60405180910390fd5b80600560008573ffffffffffffffffffffffffffffffffffffffff1673ffffffffffffffffffffffffffffffffffffffff16815260200190815260200160002060008473ffffffffffffffffffffffffffffffffffffffff1673ffffffffffffffffffffffffffffffffffffffff16815260200190815260200160002060006101000a81548160ff0219169083151502179055508173ffffffffffffffffffffffffffffffffffffffff168373ffffffffffffffffffffffffffffffffffffffff167f17307eab39ab6107e8899845ad3d59bd9653f200f220920489ca2b5937696c3183604051611db591906130a8565b60405180910390a3505050565b611dcd8484846117da565b611dd98484848461209c565b611e18576040517f08c379a0000000000000000000000000000000000000000000000000000000008152600401611e0f9061319c565b60405180910390fd5b50505050565b606060405180602001604052806000815250905090565b6060611e408261149f565b6000611e4a611e1e565b90506000815111611e6a5760405180602001604052806000815250611e95565b80611e7484612233565b604051602001611e85929190612fc4565b6040516020818303038152906040525b915050919050565b60008073ffffffffffffffffffffffffffffffffffffffff16611ebf83611b52565b73ffffffffffffffffffffffffffffffffffffffff1614159050919050565b611ef882826040518060200160405280600081525061230b565b5050565b611f0582611e9d565b611f44576040517f08c379a0000000000000000000000000000000000000000000000000000000008152600401611f3b9061327c565b60405180910390fd5b80600660008481526020019081526020016000209080519060200190611f6b92919061271c565b505050565b600181111561209057600073ffffffffffffffffffffffffffffffffffffffff168473ffffffffffffffffffffffffffffffffffffffff16146120045780600360008673ffffffffffffffffffffffffffffffffffffffff1673ffffffffffffffffffffffffffffffffffffffff1681526020019081526020016000206000828254611ffc91906134aa565b925050819055505b600073ffffffffffffffffffffffffffffffffffffffff168373ffffffffffffffffffffffffffffffffffffffff161461208f5780600360008573ffffffffffffffffffffffffffffffffffffffff1673ffffffffffffffffffffffffffffffffffffffff16815260200190815260200160002060008282546120879190613454565b925050819055505b5b50505050565b50505050565b60006120bd8473ffffffffffffffffffffffffffffffffffffffff16612366565b15612226578373ffffffffffffffffffffffffffffffffffffffff1663150b7a026120e66114ea565b8786866040518563ffffffff1660e01b81526004016121089493929190613041565b602060405180830381600087803b15801561212257600080fd5b505af192505050801561215357506040513d601f19601f820116820180604052508101906121509190612b3b565b60015b6121d6573d8060008114612183576040519150601f19603f3d011682016040523d82523d6000602084013e612188565b606091505b506000815114156121ce576040517f08c379a00000000000000000000000000000000000000000000000000000000081526004016121c59061319c565b60405180910390fd5b805181602001fd5b63150b7a0260e01b7bffffffffffffffffffffffffffffffffffffffffffffffffffffffff1916817bffffffffffffffffffffffffffffffffffffffffffffffffffffffff19161491505061222b565b600190505b949350505050565b60606000600161224284612389565b01905060008167ffffffffffffffff811115612261576122606137bd565b5b6040519080825280601f01601f1916602001820160405280156122935781602001600182028036833780820191505090505b509050600082602001820190505b600115612300578080600190039150507f3031323334353637383961626364656600000000000000000000000000000000600a86061a8153600a85816122ea576122e9613701565b5b04945060008514156122fb57612300565b6122a1565b819350505050919050565b61231583836124dc565b612322600084848461209c565b612361576040517f08c379a00000000000000000000000000000000000000000000000000000000081526004016123589061319c565b60405180910390fd5b505050565b6000808273ffffffffffffffffffffffffffffffffffffffff163b119050919050565b600080600090507a184f03e93ff9f4daa797ed6e38ed64bf6a1f01000000000000000083106123e7577a184f03e93ff9f4daa797ed6e38ed64bf6a1f01000000000000000083816123dd576123dc613701565b5b0492506040810190505b6d04ee2d6d415b85acef81000000008310612424576d04ee2d6d415b85acef8100000000838161241a57612419613701565b5b0492506020810190505b662386f26fc10000831061245357662386f26fc10000838161244957612448613701565b5b0492506010810190505b6305f5e100831061247c576305f5e100838161247257612471613701565b5b0492506008810190505b61271083106124a157612710838161249757612496613701565b5b0492506004810190505b606483106124c457606483816124ba576124b9613701565b5b0492506002810190505b600a83106124d3576001810190505b80915050919050565b600073ffffffffffffffffffffffffffffffffffffffff168273ffffffffffffffffffffffffffffffffffffffff16141561254c576040517f08c379a00000000000000000000000000000000000000000000000000000000081526004016125439061329c565b60405180910390fd5b61255581611e9d565b15612595576040517f08c379a000000000000000000000000000000000000000000000000000000000815260040161258c906131fc565b60405180910390fd5b6125a3600083836001611f70565b6125ac81611e9d565b156125ec576040517f08c379a00000000000000000000000000000000000000000000000000000000081526004016125e3906131fc565b60405180910390fd5b6001600360008473ffffffffffffffffffffffffffffffffffffffff1673ffffffffffffffffffffffffffffffffffffffff16815260200190815260200160002060008282540192505081905550816002600083815260200190815260200160002060006101000a81548173ffffffffffffffffffffffffffffffffffffffff021916908373ffffffffffffffffffffffffffffffffffffffff160217905550808273ffffffffffffffffffffffffffffffffffffffff16600073ffffffffffffffffffffffffffffffffffffffff167fddf252ad1be2c89b69c2b068fc378daa952ba7f163c4a11628f55a4df523b3ef60405160405180910390a46126f6600083836001612096565b5050565b6040518060600160405280600390602082028036833780820191505090505090565b828054612728906135f5565b90600052602060002090601f01602090048101928261274a5760008555612791565b82601f1061276357805160ff1916838001178555612791565b82800160010185558215612791579182015b82811115612790578251825591602001919060010190612775565b5b50905061279e91906127a2565b5090565b5b808211156127bb5760008160009055506001016127a3565b5090565b60006127d26127cd8461337c565b613357565b905080838252602082019050828560208602820111156127f5576127f46137f1565b5b60005b85811015612825578161280b8882612921565b8452602084019350602083019250506001810190506127f8565b5050509392505050565b600061284261283d846133a8565b613357565b90508281526020810184848401111561285e5761285d6137f6565b5b6128698482856135b3565b509392505050565b60008135905061288081613bc1565b92915050565b600082601f83011261289b5761289a6137ec565b5b81356128ab8482602086016127bf565b91505092915050565b6000813590506128c381613bd8565b92915050565b6000813590506128d881613bef565b92915050565b6000815190506128ed81613bef565b92915050565b600082601f830112612908576129076137ec565b5b813561291884826020860161282f565b91505092915050565b60008135905061293081613c06565b92915050565b60008151905061294581613c06565b92915050565b60006020828403121561296157612960613800565b5b600061296f84828501612871565b91505092915050565b6000806040838503121561298f5761298e613800565b5b600061299d85828601612871565b92505060206129ae85828601612871565b9150509250929050565b6000806000606084860312156129d1576129d0613800565b5b60006129df86828701612871565b93505060206129f086828701612871565b9250506040612a0186828701612921565b9150509250925092565b60008060008060808587031215612a2557612a24613800565b5b6000612a3387828801612871565b9450506020612a4487828801612871565b9350506040612a5587828801612921565b925050606085013567ffffffffffffffff811115612a7657612a756137fb565b5b612a82878288016128f3565b91505092959194509250565b60008060408385031215612aa557612aa4613800565b5b6000612ab385828601612871565b9250506020612ac4858286016128b4565b9150509250929050565b60008060408385031215612ae557612ae4613800565b5b6000612af385828601612871565b9250506020612b0485828601612921565b9150509250929050565b600060208284031215612b2457612b23613800565b5b6000612b32848285016128c9565b91505092915050565b600060208284031215612b5157612b50613800565b5b6000612b5f848285016128de565b91505092915050565b600060208284031215612b7e57612b7d613800565b5b6000612b8c84828501612921565b91505092915050565b600060208284031215612bab57612baa613800565b5b6000612bb984828501612936565b91505092915050565b60008060408385031215612bd957612bd8613800565b5b6000612be785828601612921565b925050602083013567ffffffffffffffff811115612c0857612c076137fb565b5b612c1485828601612886565b9150509250929050565b6000612c2a8383612f88565b60208301905092915050565b612c3f816134de565b82525050565b612c4e816133e3565b612c588184613411565b9250612c63826133d9565b8060005b83811015612c94578151612c7b8782612c1e565b9650612c8683613404565b925050600181019050612c67565b505050505050565b612ca5816134f0565b82525050565b612cb4816134fc565b82525050565b6000612cc5826133ee565b612ccf818561341c565b9350612cdf8185602086016135c2565b612ce881613805565b840191505092915050565b612cfc816135a1565b82525050565b6000612d0d826133f9565b612d178185613438565b9350612d278185602086016135c2565b612d3081613805565b840191505092915050565b6000612d46826133f9565b612d508185613449565b9350612d608185602086016135c2565b80840191505092915050565b6000612d79602d83613438565b9150612d8482613816565b604082019050919050565b6000612d9c603283613438565b9150612da782613865565b604082019050919050565b6000612dbf602683613438565b9150612dca826138b4565b604082019050919050565b6000612de2602583613438565b9150612ded82613903565b604082019050919050565b6000612e05601c83613438565b9150612e1082613952565b602082019050919050565b6000612e28602483613438565b9150612e338261397b565b604082019050919050565b6000612e4b601983613438565b9150612e56826139ca565b602082019050919050565b6000612e6e602983613438565b9150612e79826139f3565b604082019050919050565b6000612e91602e83613438565b9150612e9c82613a42565b604082019050919050565b6000612eb4602083613438565b9150612ebf82613a91565b602082019050919050565b6000612ed7602083613438565b9150612ee282613aba565b602082019050919050565b6000612efa601883613438565b9150612f0582613ae3565b602082019050919050565b6000612f1d602183613438565b9150612f2882613b0c565b604082019050919050565b6000612f4060008361342d565b9150612f4b82613b5b565b600082019050919050565b6000612f63603d83613438565b9150612f6e82613b5e565b604082019050919050565b612f8281613545565b82525050565b612f9181613573565b82525050565b612fa081613573565b82525050565b612faf8161357d565b82525050565b612fbe8161358d565b82525050565b6000612fd08285612d3b565b9150612fdc8284612d3b565b91508190509392505050565b6000612ff382612f33565b9150819050919050565b60006020820190506130126000830184612c36565b92915050565b600060408201905061302d6000830185612c36565b61303a6020830184612c36565b9392505050565b60006080820190506130566000830187612c36565b6130636020830186612c36565b6130706040830185612f97565b81810360608301526130828184612cba565b905095945050505050565b60006060820190506130a26000830184612c45565b92915050565b60006020820190506130bd6000830184612c9c565b92915050565b600060a0820190506130d86000830188612cab565b6130e56020830187612fb5565b6130f26040830186612f79565b6130ff6060830185612fa6565b61310c6080830184612fa6565b9695505050505050565b600060208201905061312b6000830184612cf3565b92915050565b60006040820190506131466000830185612cf3565b6131536020830184612c36565b9392505050565b600060208201905081810360008301526131748184612d02565b905092915050565b6000602082019050818103600083015261319581612d6c565b9050919050565b600060208201905081810360008301526131b581612d8f565b9050919050565b600060208201905081810360008301526131d581612db2565b9050919050565b600060208201905081810360008301526131f581612dd5565b9050919050565b6000602082019050818103600083015261321581612df8565b9050919050565b6000602082019050818103600083015261323581612e1b565b9050919050565b6000602082019050818103600083015261325581612e3e565b9050919050565b6000602082019050818103600083015261327581612e61565b9050919050565b6000602082019050818103600083015261329581612e84565b9050919050565b600060208201905081810360008301526132b581612ea7565b9050919050565b600060208201905081810360008301526132d581612eca565b9050919050565b600060208201905081810360008301526132f581612eed565b9050919050565b6000602082019050818103600083015261331581612f10565b9050919050565b6000602082019050818103600083015261333581612f56565b9050919050565b60006020820190506133516000830184612f97565b92915050565b6000613361613372565b905061336d8282613627565b919050565b6000604051905090565b600067ffffffffffffffff821115613397576133966137bd565b5b602082029050602081019050919050565b600067ffffffffffffffff8211156133c3576133c26137bd565b5b6133cc82613805565b9050602081019050919050565b6000819050919050565b600060039050919050565b600081519050919050565b600081519050919050565b6000602082019050919050565b600081905092915050565b600082825260208201905092915050565b600081905092915050565b600082825260208201905092915050565b600081905092915050565b600061345f82613573565b915061346a83613573565b9250827fffffffffffffffffffffffffffffffffffffffffffffffffffffffffffffffff0382111561349f5761349e6136d2565b5b828201905092915050565b60006134b582613573565b91506134c083613573565b9250828210156134d3576134d26136d2565b5b828203905092915050565b60006134e982613553565b9050919050565b60008115159050919050565b6000819050919050565b60007fffffffff0000000000000000000000000000000000000000000000000000000082169050919050565b600081905061354082613bad565b919050565b600061ffff82169050919050565b600073ffffffffffffffffffffffffffffffffffffffff82169050919050565b6000819050919050565b600063ffffffff82169050919050565b600067ffffffffffffffff82169050919050565b60006135ac82613532565b9050919050565b82818337600083830152505050565b60005b838110156135e05780820151818401526020810190506135c5565b838111156135ef576000848401525b50505050565b6000600282049050600182168061360d57607f821691505b602082108114156136215761362061375f565b5b50919050565b61363082613805565b810181811067ffffffffffffffff8211171561364f5761364e6137bd565b5b80604052505050565b600061366382613573565b91507fffffffffffffffffffffffffffffffffffffffffffffffffffffffffffffffff821415613696576136956136d2565b5b600182019050919050565b60006136ac82613573565b91506136b783613573565b9250826136c7576136c6613701565b5b828206905092915050565b7f4e487b7100000000000000000000000000000000000000000000000000000000600052601160045260246000fd5b7f4e487b7100000000000000000000000000000000000000000000000000000000600052601260045260246000fd5b7f4e487b7100000000000000000000000000000000000000000000000000000000600052602160045260246000fd5b7f4e487b7100000000000000000000000000000000000000000000000000000000600052602260045260246000fd5b7f4e487b7100000000000000000000000000000000000000000000000000000000600052603260045260246000fd5b7f4e487b7100000000000000000000000000000000000000000000000000000000600052604160045260246000fd5b600080fd5b600080fd5b600080fd5b600080fd5b600080fd5b6000601f19601f8301169050919050565b7f4552433732313a2063616c6c6572206973206e6f7420746f6b656e206f776e6560008201527f72206f7220617070726f76656400000000000000000000000000000000000000602082015250565b7f4552433732313a207472616e7366657220746f206e6f6e20455243373231526560008201527f63656976657220696d706c656d656e7465720000000000000000000000000000602082015250565b7f4f776e61626c653a206e6577206f776e657220697320746865207a65726f206160008201527f6464726573730000000000000000000000000000000000000000000000000000602082015250565b7f4552433732313a207472616e736665722066726f6d20696e636f72726563742060008201527f6f776e6572000000000000000000000000000000000000000000000000000000602082015250565b7f4552433732313a20746f6b656e20616c7265616479206d696e74656400000000600082015250565b7f4552433732313a207472616e7366657220746f20746865207a65726f2061646460008201527f7265737300000000000000000000000000000000000000000000000000000000602082015250565b7f4552433732313a20617070726f766520746f2063616c6c657200000000000000600082015250565b7f4552433732313a2061646472657373207a65726f206973206e6f74206120766160008201527f6c6964206f776e65720000000000000000000000000000000000000000000000602082015250565b7f45524337323155524953746f726167653a2055524920736574206f66206e6f6e60008201527f6578697374656e7420746f6b656e000000000000000000000000000000000000602082015250565b7f4552433732313a206d696e7420746f20746865207a65726f2061646472657373600082015250565b7f4f776e61626c653a2063616c6c6572206973206e6f7420746865206f776e6572600082015250565b7f4552433732313a20696e76616c696420746f6b656e2049440000000000000000600082015250565b7f4552433732313a20617070726f76616c20746f2063757272656e74206f776e6560008201527f7200000000000000000000000000000000000000000000000000000000000000602082015250565b50565b7f4552433732313a20617070726f76652063616c6c6572206973206e6f7420746f60008201527f6b656e206f776e6572206f7220617070726f76656420666f7220616c6c000000602082015250565b60038110613bbe57613bbd613730565b5b50565b613bca816134de565b8114613bd557600080fd5b50565b613be1816134f0565b8114613bec57600080fd5b50565b613bf881613506565b8114613c0357600080fd5b50565b613c0f81613573565b8114613c1a57600080fd5b5056fea264697066735822122021b25404b27567d14f963e3246266121351941a5e7789d1b857b75539d6e385f64736f6c63430008070033",
  "devdoc": {
    "kind": "dev",
    "methods": {
      "approve(address,uint256)": {
        "details": "See {IERC721-approve}."
      },
      "balanceOf(address)": {
        "details": "See {IERC721-balanceOf}."
      },
      "getApproved(uint256)": {
        "details": "See {IERC721-getApproved}."
      },
      "isApprovedForAll(address,address)": {
        "details": "See {IERC721-isApprovedForAll}."
      },
      "name()": {
        "details": "See {IERC721Metadata-name}."
      },
      "owner()": {
        "details": "Returns the address of the current owner."
      },
      "ownerOf(uint256)": {
        "details": "See {IERC721-ownerOf}."
      },
      "renounceOwnership()": {
        "details": "Leaves the contract without owner. It will not be possible to call `onlyOwner` functions anymore. Can only be called by the current owner. NOTE: Renouncing ownership will leave the contract without an owner, thereby removing any functionality that is only available to the owner."
      },
      "safeTransferFrom(address,address,uint256)": {
        "details": "See {IERC721-safeTransferFrom}."
      },
      "safeTransferFrom(address,address,uint256,bytes)": {
        "details": "See {IERC721-safeTransferFrom}."
      },
      "setApprovalForAll(address,bool)": {
        "details": "See {IERC721-setApprovalForAll}."
      },
      "supportsInterface(bytes4)": {
        "details": "See {IERC165-supportsInterface}."
      },
      "symbol()": {
        "details": "See {IERC721Metadata-symbol}."
      },
      "tokenURI(uint256)": {
        "details": "See {IERC721Metadata-tokenURI}."
      },
      "transferFrom(address,address,uint256)": {
        "details": "See {IERC721-transferFrom}."
      },
      "transferOwnership(address)": {
        "details": "Transfers ownership of the contract to a new account (`newOwner`). Can only be called by the current owner."
      }
    },
    "version": 1
  },
  "userdoc": {
    "kind": "user",
    "methods": {},
    "version": 1
  },
  "storageLayout": {
    "storage": [
      {
        "astId": 1296,
        "contract": "contracts/RandomIPFSNFT.sol:RandomIPFSNFT",
        "label": "_name",
        "offset": 0,
        "slot": "0",
        "type": "t_string_storage"
      },
      {
        "astId": 1298,
        "contract": "contracts/RandomIPFSNFT.sol:RandomIPFSNFT",
        "label": "_symbol",
        "offset": 0,
        "slot": "1",
        "type": "t_string_storage"
      },
      {
        "astId": 1302,
        "contract": "contracts/RandomIPFSNFT.sol:RandomIPFSNFT",
        "label": "_owners",
        "offset": 0,
        "slot": "2",
        "type": "t_mapping(t_uint256,t_address)"
      },
      {
        "astId": 1306,
        "contract": "contracts/RandomIPFSNFT.sol:RandomIPFSNFT",
        "label": "_balances",
        "offset": 0,
        "slot": "3",
        "type": "t_mapping(t_address,t_uint256)"
      },
      {
        "astId": 1310,
        "contract": "contracts/RandomIPFSNFT.sol:RandomIPFSNFT",
        "label": "_tokenApprovals",
        "offset": 0,
        "slot": "4",
        "type": "t_mapping(t_uint256,t_address)"
      },
      {
        "astId": 1316,
        "contract": "contracts/RandomIPFSNFT.sol:RandomIPFSNFT",
        "label": "_operatorApprovals",
        "offset": 0,
        "slot": "5",
        "type": "t_mapping(t_address,t_mapping(t_address,t_bool))"
      },
      {
        "astId": 2362,
        "contract": "contracts/RandomIPFSNFT.sol:RandomIPFSNFT",
        "label": "_tokenURIs",
        "offset": 0,
        "slot": "6",
        "type": "t_mapping(t_uint256,t_string_storage)"
      },
      {
        "astId": 1165,
        "contract": "contracts/RandomIPFSNFT.sol:RandomIPFSNFT",
        "label": "_owner",
        "offset": 0,
        "slot": "7",
        "type": "t_address"
      },
      {
        "astId": 4476,
        "contract": "contracts/RandomIPFSNFT.sol:RandomIPFSNFT",
        "label": "s_requestIdToSender",
        "offset": 0,
        "slot": "8",
        "type": "t_mapping(t_uint256,t_address)"
      },
      {
        "astId": 4478,
        "contract": "contracts/RandomIPFSNFT.sol:RandomIPFSNFT",
        "label": "s_tokenCounter",
        "offset": 0,
        "slot": "9",
        "type": "t_uint256"
      },
      {
        "astId": 4488,
        "contract": "contracts/RandomIPFSNFT.sol:RandomIPFSNFT",
        "label": "s_dogTokenUris",
        "offset": 0,
        "slot": "10",
        "type": "t_array(t_string_storage)dyn_storage"
      },
      {
        "astId": 4492,
        "contract": "contracts/RandomIPFSNFT.sol:RandomIPFSNFT",
        "label": "s_initialized",
        "offset": 0,
        "slot": "11",
        "type": "t_bool"
      }
    ],
    "types": {
      "t_address": {
        "encoding": "inplace",
        "label": "address",
        "numberOfBytes": "20"
      },
      "t_array(t_string_storage)dyn_storage": {
        "base": "t_string_storage",
        "encoding": "dynamic_array",
        "label": "string[]",
        "numberOfBytes": "32"
      },
      "t_bool": {
        "encoding": "inplace",
        "label": "bool",
        "numberOfBytes": "1"
      },
      "t_mapping(t_address,t_bool)": {
        "encoding": "mapping",
        "key": "t_address",
        "label": "mapping(address => bool)",
        "numberOfBytes": "32",
        "value": "t_bool"
      },
      "t_mapping(t_address,t_mapping(t_address,t_bool))": {
        "encoding": "mapping",
        "key": "t_address",
        "label": "mapping(address => mapping(address => bool))",
        "numberOfBytes": "32",
        "value": "t_mapping(t_address,t_bool)"
      },
      "t_mapping(t_address,t_uint256)": {
        "encoding": "mapping",
        "key": "t_address",
        "label": "mapping(address => uint256)",
        "numberOfBytes": "32",
        "value": "t_uint256"
      },
      "t_mapping(t_uint256,t_address)": {
        "encoding": "mapping",
        "key": "t_uint256",
        "label": "mapping(uint256 => address)",
        "numberOfBytes": "32",
        "value": "t_address"
      },
      "t_mapping(t_uint256,t_string_storage)": {
        "encoding": "mapping",
        "key": "t_uint256",
        "label": "mapping(uint256 => string)",
        "numberOfBytes": "32",
        "value": "t_string_storage"
      },
      "t_string_storage": {
        "encoding": "bytes",
        "label": "string",
        "numberOfBytes": "32"
      },
      "t_uint256": {
        "encoding": "inplace",
        "label": "uint256",
        "numberOfBytes": "32"
      }
    }
  }
}